{
  "contractName": "NFTCollection",
  "abi": [
    {
      "inputs": [],
      "stateMutability": "nonpayable",
      "type": "constructor"
    },
    {
      "anonymous": false,
      "inputs": [
        {
          "indexed": true,
          "internalType": "address",
          "name": "owner",
          "type": "address"
        },
        {
          "indexed": true,
          "internalType": "address",
          "name": "approved",
          "type": "address"
        },
        {
          "indexed": true,
          "internalType": "uint256",
          "name": "tokenId",
          "type": "uint256"
        }
      ],
      "name": "Approval",
      "type": "event"
    },
    {
      "anonymous": false,
      "inputs": [
        {
          "indexed": true,
          "internalType": "address",
          "name": "owner",
          "type": "address"
        },
        {
          "indexed": true,
          "internalType": "address",
          "name": "operator",
          "type": "address"
        },
        {
          "indexed": false,
          "internalType": "bool",
          "name": "approved",
          "type": "bool"
        }
      ],
      "name": "ApprovalForAll",
      "type": "event"
    },
    {
      "anonymous": false,
      "inputs": [
        {
          "indexed": false,
          "internalType": "uint256",
          "name": "id",
          "type": "uint256"
        },
        {
          "indexed": false,
          "internalType": "address",
          "name": "from",
          "type": "address"
        },
        {
          "indexed": false,
          "internalType": "address",
          "name": "to",
          "type": "address"
        },
        {
          "indexed": false,
          "internalType": "string",
          "name": "eventName",
          "type": "string"
        },
        {
          "indexed": false,
          "internalType": "uint256",
          "name": "ethPrice",
          "type": "uint256"
        },
        {
          "indexed": false,
          "internalType": "uint256",
          "name": "tokenId",
          "type": "uint256"
        },
        {
          "indexed": false,
          "internalType": "uint256",
          "name": "created_at",
          "type": "uint256"
        }
      ],
      "name": "EventListener",
      "type": "event"
    },
    {
      "anonymous": false,
      "inputs": [
        {
          "indexed": true,
          "internalType": "address",
          "name": "from",
          "type": "address"
        },
        {
          "indexed": true,
          "internalType": "address",
          "name": "to",
          "type": "address"
        },
        {
          "indexed": true,
          "internalType": "uint256",
          "name": "tokenId",
          "type": "uint256"
        }
      ],
      "name": "Transfer",
      "type": "event"
    },
    {
      "anonymous": false,
      "inputs": [
        {
          "indexed": false,
          "internalType": "address",
          "name": "owner",
          "type": "address"
        },
        {
          "indexed": false,
          "internalType": "uint256",
          "name": "tokenId",
          "type": "uint256"
        }
      ],
      "name": "createNFTOwner",
      "type": "event"
    },
    {
      "inputs": [
        {
          "internalType": "address",
          "name": "to",
          "type": "address"
        },
        {
          "internalType": "uint256",
          "name": "tokenId",
          "type": "uint256"
        }
      ],
      "name": "approve",
      "outputs": [],
      "stateMutability": "nonpayable",
      "type": "function"
    },
    {
      "inputs": [
        {
          "internalType": "address",
          "name": "owner",
          "type": "address"
        }
      ],
      "name": "balanceOf",
      "outputs": [
        {
          "internalType": "uint256",
          "name": "",
          "type": "uint256"
        }
      ],
      "stateMutability": "view",
      "type": "function"
    },
    {
      "inputs": [
        {
          "internalType": "uint256",
          "name": "tokenId",
          "type": "uint256"
        }
      ],
      "name": "getApproved",
      "outputs": [
        {
          "internalType": "address",
          "name": "",
          "type": "address"
        }
      ],
      "stateMutability": "view",
      "type": "function"
    },
    {
      "inputs": [
        {
          "internalType": "address",
          "name": "owner",
          "type": "address"
        },
        {
          "internalType": "address",
          "name": "operator",
          "type": "address"
        }
      ],
      "name": "isApprovedForAll",
      "outputs": [
        {
          "internalType": "bool",
          "name": "",
          "type": "bool"
        }
      ],
      "stateMutability": "view",
      "type": "function"
    },
    {
      "inputs": [],
      "name": "name",
      "outputs": [
        {
          "internalType": "string",
          "name": "",
          "type": "string"
        }
      ],
      "stateMutability": "view",
      "type": "function"
    },
    {
      "inputs": [
        {
          "internalType": "uint256",
          "name": "tokenId",
          "type": "uint256"
        }
      ],
      "name": "ownerOf",
      "outputs": [
        {
          "internalType": "address",
          "name": "",
          "type": "address"
        }
      ],
      "stateMutability": "view",
      "type": "function"
    },
    {
      "inputs": [
        {
          "internalType": "address",
          "name": "from",
          "type": "address"
        },
        {
          "internalType": "address",
          "name": "to",
          "type": "address"
        },
        {
          "internalType": "uint256",
          "name": "tokenId",
          "type": "uint256"
        }
      ],
      "name": "safeTransferFrom",
      "outputs": [],
      "stateMutability": "nonpayable",
      "type": "function"
    },
    {
      "inputs": [
        {
          "internalType": "address",
          "name": "from",
          "type": "address"
        },
        {
          "internalType": "address",
          "name": "to",
          "type": "address"
        },
        {
          "internalType": "uint256",
          "name": "tokenId",
          "type": "uint256"
        },
        {
          "internalType": "bytes",
          "name": "_data",
          "type": "bytes"
        }
      ],
      "name": "safeTransferFrom",
      "outputs": [],
      "stateMutability": "nonpayable",
      "type": "function"
    },
    {
      "inputs": [
        {
          "internalType": "address",
          "name": "operator",
          "type": "address"
        },
        {
          "internalType": "bool",
          "name": "approved",
          "type": "bool"
        }
      ],
      "name": "setApprovalForAll",
      "outputs": [],
      "stateMutability": "nonpayable",
      "type": "function"
    },
    {
      "inputs": [],
      "name": "symbol",
      "outputs": [
        {
          "internalType": "string",
          "name": "",
          "type": "string"
        }
      ],
      "stateMutability": "view",
      "type": "function"
    },
    {
      "inputs": [
        {
          "internalType": "uint256",
          "name": "index",
          "type": "uint256"
        }
      ],
      "name": "tokenByIndex",
      "outputs": [
        {
          "internalType": "uint256",
          "name": "",
          "type": "uint256"
        }
      ],
      "stateMutability": "view",
      "type": "function"
    },
    {
      "inputs": [
        {
          "internalType": "address",
          "name": "owner",
          "type": "address"
        },
        {
          "internalType": "uint256",
          "name": "index",
          "type": "uint256"
        }
      ],
      "name": "tokenOfOwnerByIndex",
      "outputs": [
        {
          "internalType": "uint256",
          "name": "",
          "type": "uint256"
        }
      ],
      "stateMutability": "view",
      "type": "function"
    },
    {
      "inputs": [
        {
          "internalType": "uint256",
          "name": "",
          "type": "uint256"
        }
      ],
      "name": "tokenURIs",
      "outputs": [
        {
          "internalType": "string",
          "name": "",
          "type": "string"
        }
      ],
      "stateMutability": "view",
      "type": "function"
    },
    {
      "inputs": [],
      "name": "totalSupply",
      "outputs": [
        {
          "internalType": "uint256",
          "name": "",
          "type": "uint256"
        }
      ],
      "stateMutability": "view",
      "type": "function"
    },
    {
      "inputs": [],
      "name": "transactionCount",
      "outputs": [
        {
          "internalType": "uint256",
          "name": "",
          "type": "uint256"
        }
      ],
      "stateMutability": "view",
      "type": "function"
    },
    {
      "inputs": [
        {
          "internalType": "address",
          "name": "from",
          "type": "address"
        },
        {
          "internalType": "address",
          "name": "to",
          "type": "address"
        },
        {
          "internalType": "uint256",
          "name": "tokenId",
          "type": "uint256"
        }
      ],
      "name": "transferFrom",
      "outputs": [],
      "stateMutability": "nonpayable",
      "type": "function"
    },
    {
      "inputs": [],
      "name": "getTransactionCount",
      "outputs": [
        {
          "internalType": "uint256",
          "name": "",
          "type": "uint256"
        }
      ],
      "stateMutability": "view",
      "type": "function"
    },
    {
      "inputs": [],
      "name": "setTransactionCount",
      "outputs": [],
      "stateMutability": "nonpayable",
      "type": "function"
    },
    {
      "inputs": [
        {
          "internalType": "bytes4",
          "name": "interfaceId",
          "type": "bytes4"
        }
      ],
      "name": "supportsInterface",
      "outputs": [
        {
          "internalType": "bool",
          "name": "",
          "type": "bool"
        }
      ],
      "stateMutability": "view",
      "type": "function"
    },
    {
      "inputs": [
        {
          "internalType": "uint256",
          "name": "tokenId",
          "type": "uint256"
        }
      ],
      "name": "tokenURI",
      "outputs": [
        {
          "internalType": "string",
          "name": "",
          "type": "string"
        }
      ],
      "stateMutability": "view",
      "type": "function"
    },
    {
      "inputs": [
        {
          "internalType": "string",
          "name": "_tokenURI",
          "type": "string"
        }
      ],
      "name": "safeMint",
      "outputs": [],
      "stateMutability": "nonpayable",
      "type": "function"
    }
  ],
  "bytecode": "0x60806040523480156200001157600080fd5b506040518060400160405280600e81526020017f6d544320436f6c6c656374696f6e0000000000000000000000000000000000008152506040518060400160405280600381526020017f6d54430000000000000000000000000000000000000000000000000000000000815250816000908051906020019062000096929190620000b8565b508060019080519060200190620000af929190620000b8565b505050620001cc565b828054620000c69062000197565b90600052602060002090601f016020900481019282620000ea576000855562000136565b82601f106200010557805160ff191683800117855562000136565b8280016001018555821562000136579182015b828111156200013557825182559160200191906001019062000118565b5b50905062000145919062000149565b5090565b5b80821115620001645760008160009055506001016200014a565b5090565b7f4e487b7100000000000000000000000000000000000000000000000000000000600052602260045260246000fd5b60006002820490506001821680620001b057607f821691505b602082108103620001c657620001c562000168565b5b50919050565b61338480620001dc6000396000f3fe608060405234801561001057600080fd5b50600436106101375760003560e01c80636352211e116100b85780639fd068691161007c5780639fd0686914610374578063a22cb4651461037e578063b77bf6001461039a578063b88d4fde146103b8578063c87b56dd146103d4578063e985e9c51461040457610137565b80636352211e146102aa578063695850fb146102da5780636c8b703f146102f657806370a082311461032657806395d89b411461035657610137565b806323b872dd116100ff57806323b872dd146101f45780632e7700f0146102105780632f745c591461022e57806342842e0e1461025e5780634f6ccce71461027a57610137565b806301ffc9a71461013c57806306fdde031461016c578063081812fc1461018a578063095ea7b3146101ba57806318160ddd146101d6575b600080fd5b61015660048036038101906101519190611fd0565b610434565b6040516101639190612018565b60405180910390f35b610174610446565b60405161018191906120cc565b60405180910390f35b6101a4600480360381019061019f9190612124565b6104d8565b6040516101b19190612192565b60405180910390f35b6101d460048036038101906101cf91906121d9565b61055d565b005b6101de610674565b6040516101eb9190612228565b60405180910390f35b61020e60048036038101906102099190612243565b610681565b005b6102186106e1565b6040516102259190612228565b60405180910390f35b610248600480360381019061024391906121d9565b6106eb565b6040516102559190612228565b60405180910390f35b61027860048036038101906102739190612243565b610790565b005b610294600480360381019061028f9190612124565b6107b0565b6040516102a19190612228565b60405180910390f35b6102c460048036038101906102bf9190612124565b610821565b6040516102d19190612192565b60405180910390f35b6102f460048036038101906102ef91906123cb565b6108d2565b005b610310600480360381019061030b9190612124565b610a86565b60405161031d91906120cc565b60405180910390f35b610340600480360381019061033b9190612414565b610b32565b60405161034d9190612228565b60405180910390f35b61035e610be9565b60405161036b91906120cc565b60405180910390f35b61037c610c7b565b005b6103986004803603810190610393919061246d565b610c95565b005b6103a2610cab565b6040516103af9190612228565b60405180910390f35b6103d260048036038101906103cd919061254e565b610cb1565b005b6103ee60048036038101906103e99190612124565b610d13565b6040516103fb91906120cc565b60405180910390f35b61041e600480360381019061041991906125d1565b610e00565b60405161042b9190612018565b60405180910390f35b600061043f82610e94565b9050919050565b60606000805461045590612640565b80601f016020809104026020016040519081016040528092919081815260200182805461048190612640565b80156104ce5780601f106104a3576101008083540402835291602001916104ce565b820191906000526020600020905b8154815290600101906020018083116104b157829003601f168201915b5050505050905090565b60006104e382610f0e565b610522576040517f08c379a0000000000000000000000000000000000000000000000000000000008152600401610519906126e3565b60405180910390fd5b6004600083815260200190815260200160002060009054906101000a900473ffffffffffffffffffffffffffffffffffffffff169050919050565b600061056882610821565b90508073ffffffffffffffffffffffffffffffffffffffff168373ffffffffffffffffffffffffffffffffffffffff16036105d8576040517f08c379a00000000000000000000000000000000000000000000000000000000081526004016105cf90612775565b60405180910390fd5b8073ffffffffffffffffffffffffffffffffffffffff166105f7610f7a565b73ffffffffffffffffffffffffffffffffffffffff161480610626575061062581610620610f7a565b610e00565b5b610665576040517f08c379a000000000000000000000000000000000000000000000000000000000815260040161065c90612807565b60405180910390fd5b61066f8383610f82565b505050565b6000600880549050905090565b61069261068c610f7a565b8261103b565b6106d1576040517f08c379a00000000000000000000000000000000000000000000000000000000081526004016106c890612899565b60405180910390fd5b6106dc838383611119565b505050565b6000600b54905090565b60006106f683610b32565b8210610737576040517f08c379a000000000000000000000000000000000000000000000000000000000815260040161072e9061292b565b60405180910390fd5b600660008473ffffffffffffffffffffffffffffffffffffffff1673ffffffffffffffffffffffffffffffffffffffff168152602001908152602001600020600083815260200190815260200160002054905092915050565b6107ab83838360405180602001604052806000815250610cb1565b505050565b60006107ba610674565b82106107fb576040517f08c379a00000000000000000000000000000000000000000000000000000000081526004016107f2906129bd565b60405180910390fd5b6008828154811061080f5761080e6129dd565b5b90600052602060002001549050919050565b6000806002600084815260200190815260200160002060009054906101000a900473ffffffffffffffffffffffffffffffffffffffff169050600073ffffffffffffffffffffffffffffffffffffffff168173ffffffffffffffffffffffffffffffffffffffff16036108c9576040517f08c379a00000000000000000000000000000000000000000000000000000000081526004016108c090612a7e565b60405180910390fd5b80915050919050565b600c816040516108e29190612ada565b908152602001604051809103902060009054906101000a900460ff161561093e576040517f08c379a000000000000000000000000000000000000000000000000000000000815260040161093590612b3d565b60405180910390fd5b600a81908060018154018082558091505060019003906000526020600020016000909190919091509080519060200190610979929190611ec1565b506000600a80549050905081600d600083815260200190815260200160002090805190602001906109ab929190611ec1565b506109b6338261137f565b6001600c836040516109c89190612ada565b908152602001604051809103902060006101000a81548160ff021916908315150217905550600b6000815480929190610a0090612b8c565b91905055507f91d2f4b88d4b8742c308058647957b66cfb290518e186fc31bac6466d57fcb28600b54333060008542604051610a4196959493929190612c65565b60405180910390a17f025a361425c615d844fe4cab90c1dd451b0ff70eff01c90470dca8ab7302d6863382604051610a7a929190612cd9565b60405180910390a15050565b600a8181548110610a9657600080fd5b906000526020600020016000915090508054610ab190612640565b80601f0160208091040260200160405190810160405280929190818152602001828054610add90612640565b8015610b2a5780601f10610aff57610100808354040283529160200191610b2a565b820191906000526020600020905b815481529060010190602001808311610b0d57829003601f168201915b505050505081565b60008073ffffffffffffffffffffffffffffffffffffffff168273ffffffffffffffffffffffffffffffffffffffff1603610ba2576040517f08c379a0000000000000000000000000000000000000000000000000000000008152600401610b9990612d74565b60405180910390fd5b600360008373ffffffffffffffffffffffffffffffffffffffff1673ffffffffffffffffffffffffffffffffffffffff168152602001908152602001600020549050919050565b606060018054610bf890612640565b80601f0160208091040260200160405190810160405280929190818152602001828054610c2490612640565b8015610c715780601f10610c4657610100808354040283529160200191610c71565b820191906000526020600020905b815481529060010190602001808311610c5457829003601f168201915b5050505050905090565b600b6000815480929190610c8e90612b8c565b9190505550565b610ca7610ca0610f7a565b838361139d565b5050565b600b5481565b610cc2610cbc610f7a565b8361103b565b610d01576040517f08c379a0000000000000000000000000000000000000000000000000000000008152600401610cf890612899565b60405180910390fd5b610d0d84848484611509565b50505050565b6060610d1e82610f0e565b610d5d576040517f08c379a0000000000000000000000000000000000000000000000000000000008152600401610d5490612e06565b60405180910390fd5b600d60008381526020019081526020016000208054610d7b90612640565b80601f0160208091040260200160405190810160405280929190818152602001828054610da790612640565b8015610df45780601f10610dc957610100808354040283529160200191610df4565b820191906000526020600020905b815481529060010190602001808311610dd757829003601f168201915b50505050509050919050565b6000600560008473ffffffffffffffffffffffffffffffffffffffff1673ffffffffffffffffffffffffffffffffffffffff16815260200190815260200160002060008373ffffffffffffffffffffffffffffffffffffffff1673ffffffffffffffffffffffffffffffffffffffff16815260200190815260200160002060009054906101000a900460ff16905092915050565b60007f780e9d63000000000000000000000000000000000000000000000000000000007bffffffffffffffffffffffffffffffffffffffffffffffffffffffff1916827bffffffffffffffffffffffffffffffffffffffffffffffffffffffff19161480610f075750610f0682611565565b5b9050919050565b60008073ffffffffffffffffffffffffffffffffffffffff166002600084815260200190815260200160002060009054906101000a900473ffffffffffffffffffffffffffffffffffffffff1673ffffffffffffffffffffffffffffffffffffffff1614159050919050565b600033905090565b816004600083815260200190815260200160002060006101000a81548173ffffffffffffffffffffffffffffffffffffffff021916908373ffffffffffffffffffffffffffffffffffffffff160217905550808273ffffffffffffffffffffffffffffffffffffffff16610ff583610821565b73ffffffffffffffffffffffffffffffffffffffff167f8c5be1e5ebec7d5bd14f71427d1e84f3dd0314c0f7b2291e5b200ac8c7c3b92560405160405180910390a45050565b600061104682610f0e565b611085576040517f08c379a000000000000000000000000000000000000000000000000000000000815260040161107c90612e98565b60405180910390fd5b600061109083610821565b90508073ffffffffffffffffffffffffffffffffffffffff168473ffffffffffffffffffffffffffffffffffffffff1614806110ff57508373ffffffffffffffffffffffffffffffffffffffff166110e7846104d8565b73ffffffffffffffffffffffffffffffffffffffff16145b80611110575061110f8185610e00565b5b91505092915050565b8273ffffffffffffffffffffffffffffffffffffffff1661113982610821565b73ffffffffffffffffffffffffffffffffffffffff161461118f576040517f08c379a000000000000000000000000000000000000000000000000000000000815260040161118690612f2a565b60405180910390fd5b600073ffffffffffffffffffffffffffffffffffffffff168273ffffffffffffffffffffffffffffffffffffffff16036111fe576040517f08c379a00000000000000000000000000000000000000000000000000000000081526004016111f590612fbc565b60405180910390fd5b611209838383611647565b611214600082610f82565b6001600360008573ffffffffffffffffffffffffffffffffffffffff1673ffffffffffffffffffffffffffffffffffffffff16815260200190815260200160002060008282546112649190612fdc565b925050819055506001600360008473ffffffffffffffffffffffffffffffffffffffff1673ffffffffffffffffffffffffffffffffffffffff16815260200190815260200160002060008282546112bb9190613010565b92505081905550816002600083815260200190815260200160002060006101000a81548173ffffffffffffffffffffffffffffffffffffffff021916908373ffffffffffffffffffffffffffffffffffffffff160217905550808273ffffffffffffffffffffffffffffffffffffffff168473ffffffffffffffffffffffffffffffffffffffff167fddf252ad1be2c89b69c2b068fc378daa952ba7f163c4a11628f55a4df523b3ef60405160405180910390a461137a838383611657565b505050565b61139982826040518060200160405280600081525061165c565b5050565b8173ffffffffffffffffffffffffffffffffffffffff168373ffffffffffffffffffffffffffffffffffffffff160361140b576040517f08c379a0000000000000000000000000000000000000000000000000000000008152600401611402906130b2565b60405180910390fd5b80600560008573ffffffffffffffffffffffffffffffffffffffff1673ffffffffffffffffffffffffffffffffffffffff16815260200190815260200160002060008473ffffffffffffffffffffffffffffffffffffffff1673ffffffffffffffffffffffffffffffffffffffff16815260200190815260200160002060006101000a81548160ff0219169083151502179055508173ffffffffffffffffffffffffffffffffffffffff168373ffffffffffffffffffffffffffffffffffffffff167f17307eab39ab6107e8899845ad3d59bd9653f200f220920489ca2b5937696c31836040516114fc9190612018565b60405180910390a3505050565b611514848484611119565b611520848484846116b7565b61155f576040517f08c379a000000000000000000000000000000000000000000000000000000000815260040161155690613144565b60405180910390fd5b50505050565b60007f80ac58cd000000000000000000000000000000000000000000000000000000007bffffffffffffffffffffffffffffffffffffffffffffffffffffffff1916827bffffffffffffffffffffffffffffffffffffffffffffffffffffffff1916148061163057507f5b5e139f000000000000000000000000000000000000000000000000000000007bffffffffffffffffffffffffffffffffffffffffffffffffffffffff1916827bffffffffffffffffffffffffffffffffffffffffffffffffffffffff1916145b80611640575061163f8261183e565b5b9050919050565b6116528383836118a8565b505050565b505050565b61166683836119ba565b61167360008484846116b7565b6116b2576040517f08c379a00000000000000000000000000000000000000000000000000000000081526004016116a990613144565b60405180910390fd5b505050565b60006116d88473ffffffffffffffffffffffffffffffffffffffff16611b93565b15611831578373ffffffffffffffffffffffffffffffffffffffff1663150b7a02611701610f7a565b8786866040518563ffffffff1660e01b815260040161172394939291906131b9565b6020604051808303816000875af192505050801561175f57506040513d601f19601f8201168201806040525081019061175c919061321a565b60015b6117e1573d806000811461178f576040519150601f19603f3d011682016040523d82523d6000602084013e611794565b606091505b5060008151036117d9576040517f08c379a00000000000000000000000000000000000000000000000000000000081526004016117d090613144565b60405180910390fd5b805181602001fd5b63150b7a0260e01b7bffffffffffffffffffffffffffffffffffffffffffffffffffffffff1916817bffffffffffffffffffffffffffffffffffffffffffffffffffffffff191614915050611836565b600190505b949350505050565b60007f01ffc9a7000000000000000000000000000000000000000000000000000000007bffffffffffffffffffffffffffffffffffffffffffffffffffffffff1916827bffffffffffffffffffffffffffffffffffffffffffffffffffffffff1916149050919050565b6118b3838383611bb6565b600073ffffffffffffffffffffffffffffffffffffffff168373ffffffffffffffffffffffffffffffffffffffff16036118f5576118f081611bbb565b611934565b8173ffffffffffffffffffffffffffffffffffffffff168373ffffffffffffffffffffffffffffffffffffffff1614611933576119328382611c04565b5b5b600073ffffffffffffffffffffffffffffffffffffffff168273ffffffffffffffffffffffffffffffffffffffff16036119765761197181611d71565b6119b5565b8273ffffffffffffffffffffffffffffffffffffffff168273ffffffffffffffffffffffffffffffffffffffff16146119b4576119b38282611e42565b5b5b505050565b600073ffffffffffffffffffffffffffffffffffffffff168273ffffffffffffffffffffffffffffffffffffffff1603611a29576040517f08c379a0000000000000000000000000000000000000000000000000000000008152600401611a2090613293565b60405180910390fd5b611a3281610f0e565b15611a72576040517f08c379a0000000000000000000000000000000000000000000000000000000008152600401611a69906132ff565b60405180910390fd5b611a7e60008383611647565b6001600360008473ffffffffffffffffffffffffffffffffffffffff1673ffffffffffffffffffffffffffffffffffffffff1681526020019081526020016000206000828254611ace9190613010565b92505081905550816002600083815260200190815260200160002060006101000a81548173ffffffffffffffffffffffffffffffffffffffff021916908373ffffffffffffffffffffffffffffffffffffffff160217905550808273ffffffffffffffffffffffffffffffffffffffff16600073ffffffffffffffffffffffffffffffffffffffff167fddf252ad1be2c89b69c2b068fc378daa952ba7f163c4a11628f55a4df523b3ef60405160405180910390a4611b8f60008383611657565b5050565b6000808273ffffffffffffffffffffffffffffffffffffffff163b119050919050565b505050565b6008805490506009600083815260200190815260200160002081905550600881908060018154018082558091505060019003906000526020600020016000909190919091505550565b60006001611c1184610b32565b611c1b9190612fdc565b9050600060076000848152602001908152602001600020549050818114611d00576000600660008673ffffffffffffffffffffffffffffffffffffffff1673ffffffffffffffffffffffffffffffffffffffff168152602001908152602001600020600084815260200190815260200160002054905080600660008773ffffffffffffffffffffffffffffffffffffffff1673ffffffffffffffffffffffffffffffffffffffff168152602001908152602001600020600084815260200190815260200160002081905550816007600083815260200190815260200160002081905550505b6007600084815260200190815260200160002060009055600660008573ffffffffffffffffffffffffffffffffffffffff1673ffffffffffffffffffffffffffffffffffffffff16815260200190815260200160002060008381526020019081526020016000206000905550505050565b60006001600880549050611d859190612fdc565b9050600060096000848152602001908152602001600020549050600060088381548110611db557611db46129dd565b5b906000526020600020015490508060088381548110611dd757611dd66129dd565b5b906000526020600020018190555081600960008381526020019081526020016000208190555060096000858152602001908152602001600020600090556008805480611e2657611e2561331f565b5b6001900381819060005260206000200160009055905550505050565b6000611e4d83610b32565b905081600660008573ffffffffffffffffffffffffffffffffffffffff1673ffffffffffffffffffffffffffffffffffffffff168152602001908152602001600020600083815260200190815260200160002081905550806007600084815260200190815260200160002081905550505050565b828054611ecd90612640565b90600052602060002090601f016020900481019282611eef5760008555611f36565b82601f10611f0857805160ff1916838001178555611f36565b82800160010185558215611f36579182015b82811115611f35578251825591602001919060010190611f1a565b5b509050611f439190611f47565b5090565b5b80821115611f60576000816000905550600101611f48565b5090565b6000604051905090565b600080fd5b600080fd5b60007fffffffff0000000000000000000000000000000000000000000000000000000082169050919050565b611fad81611f78565b8114611fb857600080fd5b50565b600081359050611fca81611fa4565b92915050565b600060208284031215611fe657611fe5611f6e565b5b6000611ff484828501611fbb565b91505092915050565b60008115159050919050565b61201281611ffd565b82525050565b600060208201905061202d6000830184612009565b92915050565b600081519050919050565b600082825260208201905092915050565b60005b8381101561206d578082015181840152602081019050612052565b8381111561207c576000848401525b50505050565b6000601f19601f8301169050919050565b600061209e82612033565b6120a8818561203e565b93506120b881856020860161204f565b6120c181612082565b840191505092915050565b600060208201905081810360008301526120e68184612093565b905092915050565b6000819050919050565b612101816120ee565b811461210c57600080fd5b50565b60008135905061211e816120f8565b92915050565b60006020828403121561213a57612139611f6e565b5b60006121488482850161210f565b91505092915050565b600073ffffffffffffffffffffffffffffffffffffffff82169050919050565b600061217c82612151565b9050919050565b61218c81612171565b82525050565b60006020820190506121a76000830184612183565b92915050565b6121b681612171565b81146121c157600080fd5b50565b6000813590506121d3816121ad565b92915050565b600080604083850312156121f0576121ef611f6e565b5b60006121fe858286016121c4565b925050602061220f8582860161210f565b9150509250929050565b612222816120ee565b82525050565b600060208201905061223d6000830184612219565b92915050565b60008060006060848603121561225c5761225b611f6e565b5b600061226a868287016121c4565b935050602061227b868287016121c4565b925050604061228c8682870161210f565b9150509250925092565b600080fd5b600080fd5b7f4e487b7100000000000000000000000000000000000000000000000000000000600052604160045260246000fd5b6122d882612082565b810181811067ffffffffffffffff821117156122f7576122f66122a0565b5b80604052505050565b600061230a611f64565b905061231682826122cf565b919050565b600067ffffffffffffffff821115612336576123356122a0565b5b61233f82612082565b9050602081019050919050565b82818337600083830152505050565b600061236e6123698461231b565b612300565b90508281526020810184848401111561238a5761238961229b565b5b61239584828561234c565b509392505050565b600082601f8301126123b2576123b1612296565b5b81356123c284826020860161235b565b91505092915050565b6000602082840312156123e1576123e0611f6e565b5b600082013567ffffffffffffffff8111156123ff576123fe611f73565b5b61240b8482850161239d565b91505092915050565b60006020828403121561242a57612429611f6e565b5b6000612438848285016121c4565b91505092915050565b61244a81611ffd565b811461245557600080fd5b50565b60008135905061246781612441565b92915050565b6000806040838503121561248457612483611f6e565b5b6000612492858286016121c4565b92505060206124a385828601612458565b9150509250929050565b600067ffffffffffffffff8211156124c8576124c76122a0565b5b6124d182612082565b9050602081019050919050565b60006124f16124ec846124ad565b612300565b90508281526020810184848401111561250d5761250c61229b565b5b61251884828561234c565b509392505050565b600082601f83011261253557612534612296565b5b81356125458482602086016124de565b91505092915050565b6000806000806080858703121561256857612567611f6e565b5b6000612576878288016121c4565b9450506020612587878288016121c4565b93505060406125988782880161210f565b925050606085013567ffffffffffffffff8111156125b9576125b8611f73565b5b6125c587828801612520565b91505092959194509250565b600080604083850312156125e8576125e7611f6e565b5b60006125f6858286016121c4565b9250506020612607858286016121c4565b9150509250929050565b7f4e487b7100000000000000000000000000000000000000000000000000000000600052602260045260246000fd5b6000600282049050600182168061265857607f821691505b60208210810361266b5761266a612611565b5b50919050565b7f4552433732313a20617070726f76656420717565727920666f72206e6f6e657860008201527f697374656e7420746f6b656e0000000000000000000000000000000000000000602082015250565b60006126cd602c8361203e565b91506126d882612671565b604082019050919050565b600060208201905081810360008301526126fc816126c0565b9050919050565b7f4552433732313a20617070726f76616c20746f2063757272656e74206f776e6560008201527f7200000000000000000000000000000000000000000000000000000000000000602082015250565b600061275f60218361203e565b915061276a82612703565b604082019050919050565b6000602082019050818103600083015261278e81612752565b9050919050565b7f4552433732313a20617070726f76652063616c6c6572206973206e6f74206f7760008201527f6e6572206e6f7220617070726f76656420666f7220616c6c0000000000000000602082015250565b60006127f160388361203e565b91506127fc82612795565b604082019050919050565b60006020820190508181036000830152612820816127e4565b9050919050565b7f4552433732313a207472616e736665722063616c6c6572206973206e6f74206f60008201527f776e6572206e6f7220617070726f766564000000000000000000000000000000602082015250565b600061288360318361203e565b915061288e82612827565b604082019050919050565b600060208201905081810360008301526128b281612876565b9050919050565b7f455243373231456e756d657261626c653a206f776e657220696e646578206f7560008201527f74206f6620626f756e6473000000000000000000000000000000000000000000602082015250565b6000612915602b8361203e565b9150612920826128b9565b604082019050919050565b6000602082019050818103600083015261294481612908565b9050919050565b7f455243373231456e756d657261626c653a20676c6f62616c20696e646578206f60008201527f7574206f6620626f756e64730000000000000000000000000000000000000000602082015250565b60006129a7602c8361203e565b91506129b28261294b565b604082019050919050565b600060208201905081810360008301526129d68161299a565b9050919050565b7f4e487b7100000000000000000000000000000000000000000000000000000000600052603260045260246000fd5b7f4552433732313a206f776e657220717565727920666f72206e6f6e657869737460008201527f656e7420746f6b656e0000000000000000000000000000000000000000000000602082015250565b6000612a6860298361203e565b9150612a7382612a0c565b604082019050919050565b60006020820190508181036000830152612a9781612a5b565b9050919050565b600081905092915050565b6000612ab482612033565b612abe8185612a9e565b9350612ace81856020860161204f565b80840191505092915050565b6000612ae68284612aa9565b915081905092915050565b7f54686520746f6b656e205552492073686f756c6420626520756e697175650000600082015250565b6000612b27601e8361203e565b9150612b3282612af1565b602082019050919050565b60006020820190508181036000830152612b5681612b1a565b9050919050565b7f4e487b7100000000000000000000000000000000000000000000000000000000600052601160045260246000fd5b6000612b97826120ee565b91507fffffffffffffffffffffffffffffffffffffffffffffffffffffffffffffffff8203612bc957612bc8612b5d565b5b600182019050919050565b7f53616665204d696e740000000000000000000000000000000000000000000000600082015250565b6000612c0a60098361203e565b9150612c1582612bd4565b602082019050919050565b6000819050919050565b6000819050919050565b6000612c4f612c4a612c4584612c20565b612c2a565b6120ee565b9050919050565b612c5f81612c34565b82525050565b600060e082019050612c7a6000830189612219565b612c876020830188612183565b612c946040830187612183565b8181036060830152612ca581612bfd565b9050612cb46080830186612c56565b612cc160a0830185612219565b612cce60c0830184612219565b979650505050505050565b6000604082019050612cee6000830185612183565b612cfb6020830184612219565b9392505050565b7f4552433732313a2062616c616e636520717565727920666f7220746865207a6560008201527f726f206164647265737300000000000000000000000000000000000000000000602082015250565b6000612d5e602a8361203e565b9150612d6982612d02565b604082019050919050565b60006020820190508181036000830152612d8d81612d51565b9050919050565b7f4552433732314d657461646174613a2055524920717565727920666f72206e6f60008201527f6e6578697374656e7420746f6b656e0000000000000000000000000000000000602082015250565b6000612df0602f8361203e565b9150612dfb82612d94565b604082019050919050565b60006020820190508181036000830152612e1f81612de3565b9050919050565b7f4552433732313a206f70657261746f7220717565727920666f72206e6f6e657860008201527f697374656e7420746f6b656e0000000000000000000000000000000000000000602082015250565b6000612e82602c8361203e565b9150612e8d82612e26565b604082019050919050565b60006020820190508181036000830152612eb181612e75565b9050919050565b7f4552433732313a207472616e736665722066726f6d20696e636f72726563742060008201527f6f776e6572000000000000000000000000000000000000000000000000000000602082015250565b6000612f1460258361203e565b9150612f1f82612eb8565b604082019050919050565b60006020820190508181036000830152612f4381612f07565b9050919050565b7f4552433732313a207472616e7366657220746f20746865207a65726f2061646460008201527f7265737300000000000000000000000000000000000000000000000000000000602082015250565b6000612fa660248361203e565b9150612fb182612f4a565b604082019050919050565b60006020820190508181036000830152612fd581612f99565b9050919050565b6000612fe7826120ee565b9150612ff2836120ee565b92508282101561300557613004612b5d565b5b828203905092915050565b600061301b826120ee565b9150613026836120ee565b9250827fffffffffffffffffffffffffffffffffffffffffffffffffffffffffffffffff0382111561305b5761305a612b5d565b5b828201905092915050565b7f4552433732313a20617070726f766520746f2063616c6c657200000000000000600082015250565b600061309c60198361203e565b91506130a782613066565b602082019050919050565b600060208201905081810360008301526130cb8161308f565b9050919050565b7f4552433732313a207472616e7366657220746f206e6f6e20455243373231526560008201527f63656976657220696d706c656d656e7465720000000000000000000000000000602082015250565b600061312e60328361203e565b9150613139826130d2565b604082019050919050565b6000602082019050818103600083015261315d81613121565b9050919050565b600081519050919050565b600082825260208201905092915050565b600061318b82613164565b613195818561316f565b93506131a581856020860161204f565b6131ae81612082565b840191505092915050565b60006080820190506131ce6000830187612183565b6131db6020830186612183565b6131e86040830185612219565b81810360608301526131fa8184613180565b905095945050505050565b60008151905061321481611fa4565b92915050565b6000602082840312156132305761322f611f6e565b5b600061323e84828501613205565b91505092915050565b7f4552433732313a206d696e7420746f20746865207a65726f2061646472657373600082015250565b600061327d60208361203e565b915061328882613247565b602082019050919050565b600060208201905081810360008301526132ac81613270565b9050919050565b7f4552433732313a20746f6b656e20616c7265616479206d696e74656400000000600082015250565b60006132e9601c8361203e565b91506132f4826132b3565b602082019050919050565b60006020820190508181036000830152613318816132dc565b9050919050565b7f4e487b7100000000000000000000000000000000000000000000000000000000600052603160045260246000fdfea2646970667358221220a2ff8bc0e9c0e9e59684765feef66f2ac02a84bf53d43322cdc23e0a825e53ec64736f6c634300080d0033",
  "immutableReferences": {},
  "source": "// SPDX-License-Identifier: MIT\npragma solidity ^0.8.0;\n\nimport \"@openzeppelin/contracts/token/ERC721/ERC721.sol\";\nimport \"@openzeppelin/contracts/token/ERC721/extensions/ERC721Enumerable.sol\";\n\ncontract NFTCollection is ERC721, ERC721Enumerable {\n  string[] public tokenURIs;\n\n  uint public transactionCount;\n  mapping(string => bool) _tokenURIExists;\n  mapping(uint => string) _tokenIdToTokenURI;\n  event EventListener(uint id,address from, address to, string eventName,uint256 ethPrice,uint tokenId,uint256 created_at);\n  event createNFTOwner(address owner,uint tokenId);\n\n  constructor() \n    ERC721(\"mTC Collection\", \"mTC\") \n  {\n  }\n\n\n  function getTransactionCount() public view returns (uint){\n    return transactionCount;\n  }\n    function setTransactionCount() public{\n     transactionCount++;\n  }\n\n  function _beforeTokenTransfer(address from, address to, uint256 tokenId) internal override(ERC721, ERC721Enumerable) {\n    super._beforeTokenTransfer(from, to, tokenId);\n  }\n\n  function supportsInterface(bytes4 interfaceId) public view override(ERC721, ERC721Enumerable) returns (bool) {\n    return super.supportsInterface(interfaceId);\n  }\n\n  function tokenURI(uint256 tokenId) public override view returns (string memory) {\n    require(_exists(tokenId), 'ERC721Metadata: URI query for nonexistent token');\n    return _tokenIdToTokenURI[tokenId];\n  }\n\n  function safeMint(string memory _tokenURI) public {\n    require(!_tokenURIExists[_tokenURI], 'The token URI should be unique');\n    tokenURIs.push(_tokenURI);    \n    uint _id = tokenURIs.length;\n    _tokenIdToTokenURI[_id] = _tokenURI;\n    _safeMint(msg.sender, _id);\n    _tokenURIExists[_tokenURI] = true;\n    transactionCount++;\n    emit EventListener(transactionCount,msg.sender,address(this),\"Safe Mint\",0,_id,block.timestamp);\n    emit createNFTOwner(msg.sender,_id);\n  }\n\n}",
  "sourcePath": "/Users/giangtran/Desktop/workspace/nft-marketplace/src/contracts/audit-contracts/NFTCollection.sol",
  "compiler": {
    "name": "solc",
    "version": "0.8.13+commit.abaa5c0e.Emscripten.clang"
  },
  "schemaVersion": "3.4.6",
  "updatedAt": "2022-05-16T15:46:34.088Z",
  "devdoc": {
    "kind": "dev",
    "methods": {
      "approve(address,uint256)": {
        "details": "See {IERC721-approve}."
      },
      "balanceOf(address)": {
        "details": "See {IERC721-balanceOf}."
      },
      "getApproved(uint256)": {
        "details": "See {IERC721-getApproved}."
      },
      "isApprovedForAll(address,address)": {
        "details": "See {IERC721-isApprovedForAll}."
      },
      "name()": {
        "details": "See {IERC721Metadata-name}."
      },
      "ownerOf(uint256)": {
        "details": "See {IERC721-ownerOf}."
      },
      "safeTransferFrom(address,address,uint256)": {
        "details": "See {IERC721-safeTransferFrom}."
      },
      "safeTransferFrom(address,address,uint256,bytes)": {
        "details": "See {IERC721-safeTransferFrom}."
      },
      "setApprovalForAll(address,bool)": {
        "details": "See {IERC721-setApprovalForAll}."
      },
      "symbol()": {
        "details": "See {IERC721Metadata-symbol}."
      },
      "tokenByIndex(uint256)": {
        "details": "See {IERC721Enumerable-tokenByIndex}."
      },
      "tokenOfOwnerByIndex(address,uint256)": {
        "details": "See {IERC721Enumerable-tokenOfOwnerByIndex}."
      },
      "tokenURI(uint256)": {
        "details": "See {IERC721Metadata-tokenURI}."
      },
      "totalSupply()": {
        "details": "See {IERC721Enumerable-totalSupply}."
      },
      "transferFrom(address,address,uint256)": {
        "details": "See {IERC721-transferFrom}."
      }
    },
    "version": 1
  },
  "userdoc": {
    "kind": "user",
    "methods": {},
    "version": 1
  }
}