{
  "contractName": "NFTMarketplace",
  "abi": [
    {
      "inputs": [
        {
          "internalType": "address",
          "name": "_nftCollection",
          "type": "address"
        }
      ],
      "stateMutability": "nonpayable",
      "type": "constructor"
    },
    {
      "anonymous": false,
      "inputs": [
        {
          "indexed": false,
          "internalType": "address",
          "name": "user",
          "type": "address"
        },
        {
          "indexed": false,
          "internalType": "uint256",
          "name": "amount",
          "type": "uint256"
        }
      ],
      "name": "ClaimFunds",
      "type": "event"
    },
    {
      "anonymous": false,
      "inputs": [
        {
          "indexed": false,
          "internalType": "uint256",
          "name": "id",
          "type": "uint256"
        },
        {
          "indexed": false,
          "internalType": "address",
          "name": "from",
          "type": "address"
        },
        {
          "indexed": false,
          "internalType": "address",
          "name": "to",
          "type": "address"
        },
        {
          "indexed": false,
          "internalType": "string",
          "name": "eventName",
          "type": "string"
        },
        {
          "indexed": false,
          "internalType": "uint256",
          "name": "ethPrice",
          "type": "uint256"
        },
        {
          "indexed": false,
          "internalType": "uint256",
          "name": "tokenId",
          "type": "uint256"
        },
        {
          "indexed": false,
          "internalType": "uint256",
          "name": "created_at",
          "type": "uint256"
        }
      ],
      "name": "EventListener",
      "type": "event"
    },
    {
      "anonymous": false,
      "inputs": [
        {
          "indexed": false,
          "internalType": "uint256",
          "name": "offerId",
          "type": "uint256"
        },
        {
          "indexed": false,
          "internalType": "uint256",
          "name": "id",
          "type": "uint256"
        },
        {
          "indexed": false,
          "internalType": "address",
          "name": "user",
          "type": "address"
        },
        {
          "indexed": false,
          "internalType": "uint256",
          "name": "price",
          "type": "uint256"
        },
        {
          "indexed": false,
          "internalType": "bool",
          "name": "fulfilled",
          "type": "bool"
        },
        {
          "indexed": false,
          "internalType": "bool",
          "name": "cancelled",
          "type": "bool"
        }
      ],
      "name": "Offer",
      "type": "event"
    },
    {
      "anonymous": false,
      "inputs": [
        {
          "indexed": false,
          "internalType": "uint256",
          "name": "offerId",
          "type": "uint256"
        },
        {
          "indexed": false,
          "internalType": "uint256",
          "name": "id",
          "type": "uint256"
        },
        {
          "indexed": false,
          "internalType": "address",
          "name": "owner",
          "type": "address"
        }
      ],
      "name": "OfferCancelled",
      "type": "event"
    },
    {
      "anonymous": false,
      "inputs": [
        {
          "indexed": false,
          "internalType": "uint256",
          "name": "offerId",
          "type": "uint256"
        },
        {
          "indexed": false,
          "internalType": "uint256",
          "name": "id",
          "type": "uint256"
        },
        {
          "indexed": false,
          "internalType": "address",
          "name": "newOwner",
          "type": "address"
        }
      ],
      "name": "OfferFilled",
      "type": "event"
    },
    {
      "anonymous": false,
      "inputs": [
        {
          "indexed": false,
          "internalType": "address",
          "name": "owner",
          "type": "address"
        },
        {
          "indexed": false,
          "internalType": "uint256",
          "name": "tokenId",
          "type": "uint256"
        }
      ],
      "name": "updateNFTOwner",
      "type": "event"
    },
    {
      "stateMutability": "nonpayable",
      "type": "fallback"
    },
    {
      "inputs": [],
      "name": "offerCount",
      "outputs": [
        {
          "internalType": "uint256",
          "name": "",
          "type": "uint256"
        }
      ],
      "stateMutability": "view",
      "type": "function"
    },
    {
      "inputs": [
        {
          "internalType": "uint256",
          "name": "",
          "type": "uint256"
        }
      ],
      "name": "offers",
      "outputs": [
        {
          "internalType": "uint256",
          "name": "offerId",
          "type": "uint256"
        },
        {
          "internalType": "uint256",
          "name": "id",
          "type": "uint256"
        },
        {
          "internalType": "address",
          "name": "user",
          "type": "address"
        },
        {
          "internalType": "uint256",
          "name": "price",
          "type": "uint256"
        },
        {
          "internalType": "bool",
          "name": "fulfilled",
          "type": "bool"
        },
        {
          "internalType": "bool",
          "name": "cancelled",
          "type": "bool"
        }
      ],
      "stateMutability": "view",
      "type": "function"
    },
    {
      "inputs": [
        {
          "internalType": "address",
          "name": "",
          "type": "address"
        }
      ],
      "name": "userFunds",
      "outputs": [
        {
          "internalType": "uint256",
          "name": "",
          "type": "uint256"
        }
      ],
      "stateMutability": "view",
      "type": "function"
    },
    {
      "inputs": [
        {
          "internalType": "uint256",
          "name": "_id",
          "type": "uint256"
        },
        {
          "internalType": "uint256",
          "name": "_price",
          "type": "uint256"
        }
      ],
      "name": "makeOffer",
      "outputs": [],
      "stateMutability": "nonpayable",
      "type": "function"
    },
    {
      "inputs": [
        {
          "internalType": "uint256",
          "name": "_offerId",
          "type": "uint256"
        }
      ],
      "name": "fillOffer",
      "outputs": [],
      "stateMutability": "payable",
      "type": "function"
    },
    {
      "inputs": [
        {
          "internalType": "uint256",
          "name": "_offerId",
          "type": "uint256"
        }
      ],
      "name": "cancelOffer",
      "outputs": [],
      "stateMutability": "nonpayable",
      "type": "function"
    },
    {
      "inputs": [],
      "name": "claimFunds",
      "outputs": [],
      "stateMutability": "nonpayable",
      "type": "function"
    }
  ],
  "bytecode": "0x60806040523480156200001157600080fd5b5060405162001be438038062001be48339818101604052810190620000379190620000e9565b80600360006101000a81548173ffffffffffffffffffffffffffffffffffffffff021916908373ffffffffffffffffffffffffffffffffffffffff160217905550506200011b565b600080fd5b600073ffffffffffffffffffffffffffffffffffffffff82169050919050565b6000620000b18262000084565b9050919050565b620000c381620000a4565b8114620000cf57600080fd5b50565b600081519050620000e381620000b8565b92915050565b6000602082840312156200010257620001016200007f565b5b60006200011284828501620000d2565b91505092915050565b611ab9806200012b6000396000f3fe6080604052600436106100745760003560e01c806385dba8611161004e57806385dba861146101185780638a72ea6a14610134578063ac30777314610176578063ef706adf1461018d57610075565b806305b7cdd3146100875780631115c24d146100b05780638387c6e1146100db57610075565b5b34801561008157600080fd5b50600080fd5b34801561009357600080fd5b506100ae60048036038101906100a99190610fe3565b6101b6565b005b3480156100bc57600080fd5b506100c5610500565b6040516100d29190611032565b60405180910390f35b3480156100e757600080fd5b5061010260048036038101906100fd91906110ab565b610506565b60405161010f9190611032565b60405180910390f35b610132600480360381019061012d91906110d8565b61051e565b005b34801561014057600080fd5b5061015b600480360381019061015691906110d8565b6109fe565b60405161016d9695949392919061112f565b60405180910390f35b34801561018257600080fd5b5061018b610a74565b005b34801561019957600080fd5b506101b460048036038101906101af91906110d8565b610c3b565b005b600360009054906101000a900473ffffffffffffffffffffffffffffffffffffffff1673ffffffffffffffffffffffffffffffffffffffff166323b872dd3330856040518463ffffffff1660e01b815260040161021593929190611190565b600060405180830381600087803b15801561022f57600080fd5b505af1158015610243573d6000803e3d6000fd5b50505050600080815480929190610259906111f6565b91905055506040518060c0016040528060005481526020018381526020013373ffffffffffffffffffffffffffffffffffffffff168152602001828152602001600015158152602001600015158152506001600080548152602001908152602001600020600082015181600001556020820151816001015560408201518160020160006101000a81548173ffffffffffffffffffffffffffffffffffffffff021916908373ffffffffffffffffffffffffffffffffffffffff1602179055506060820151816003015560808201518160040160006101000a81548160ff02191690831515021790555060a08201518160040160016101000a81548160ff0219169083151502179055509050507f93e711896d4ef527d199d7e101922e20f918cbb248a0fb0977c52fda24aa1f1d6000548333846000806040516103a19695949392919061112f565b60405180910390a1600360009054906101000a900473ffffffffffffffffffffffffffffffffffffffff1673ffffffffffffffffffffffffffffffffffffffff16639fd068696040518163ffffffff1660e01b8152600401600060405180830381600087803b15801561041357600080fd5b505af1158015610427573d6000803e3d6000fd5b505050507f91d2f4b88d4b8742c308058647957b66cfb290518e186fc31bac6466d57fcb28600360009054906101000a900473ffffffffffffffffffffffffffffffffffffffff1673ffffffffffffffffffffffffffffffffffffffff16632e7700f06040518163ffffffff1660e01b8152600401602060405180830381865afa1580156104b9573d6000803e3d6000fd5b505050506040513d601f19601f820116820180604052508101906104dd9190611253565b33308486426040516104f4969594939291906112dd565b60405180910390a15050565b60005481565b60026020528060005260406000206000915090505481565b60006001600083815260200190815260200160002090508181600001541461057b576040517f08c379a00000000000000000000000000000000000000000000000000000000081526004016105729061139d565b60405180910390fd5b3373ffffffffffffffffffffffffffffffffffffffff168160020160009054906101000a900473ffffffffffffffffffffffffffffffffffffffff1673ffffffffffffffffffffffffffffffffffffffff160361060d576040517f08c379a00000000000000000000000000000000000000000000000000000000081526004016106049061142f565b60405180910390fd5b8060040160009054906101000a900460ff161561065f576040517f08c379a0000000000000000000000000000000000000000000000000000000008152600401610656906114c1565b60405180910390fd5b8060040160019054906101000a900460ff16156106b1576040517f08c379a00000000000000000000000000000000000000000000000000000000081526004016106a890611553565b60405180910390fd5b806003015434146106f7576040517f08c379a00000000000000000000000000000000000000000000000000000000081526004016106ee906115e5565b60405180910390fd5b600360009054906101000a900473ffffffffffffffffffffffffffffffffffffffff1673ffffffffffffffffffffffffffffffffffffffff166323b872dd303384600101546040518463ffffffff1660e01b815260040161075a93929190611190565b600060405180830381600087803b15801561077457600080fd5b505af1158015610788573d6000803e3d6000fd5b5050505060018160040160006101000a81548160ff02191690831515021790555034600260008360020160009054906101000a900473ffffffffffffffffffffffffffffffffffffffff1673ffffffffffffffffffffffffffffffffffffffff1673ffffffffffffffffffffffffffffffffffffffff168152602001908152602001600020600082825461081c9190611605565b925050819055507fd9157c065213ada613694e84b1e27fe2efd62d85c6b82bd6c842a4999491e72a8282600101543360405161085a9392919061165b565b60405180910390a1600360009054906101000a900473ffffffffffffffffffffffffffffffffffffffff1673ffffffffffffffffffffffffffffffffffffffff16639fd068696040518163ffffffff1660e01b8152600401600060405180830381600087803b1580156108cc57600080fd5b505af11580156108e0573d6000803e3d6000fd5b505050507fae41bd7e22d87753d139259f1de18b0c5a27754970ef7c591d74b9ef0c8a47cd338260010154604051610919929190611692565b60405180910390a17f91d2f4b88d4b8742c308058647957b66cfb290518e186fc31bac6466d57fcb28600360009054906101000a900473ffffffffffffffffffffffffffffffffffffffff1673ffffffffffffffffffffffffffffffffffffffff16632e7700f06040518163ffffffff1660e01b8152600401602060405180830381865afa1580156109af573d6000803e3d6000fd5b505050506040513d601f19601f820116820180604052508101906109d39190611253565b303384600301548560010154426040516109f296959493929190611707565b60405180910390a15050565b60016020528060005260406000206000915090508060000154908060010154908060020160009054906101000a900473ffffffffffffffffffffffffffffffffffffffff16908060030154908060040160009054906101000a900460ff16908060040160019054906101000a900460ff16905086565b6000600260003373ffffffffffffffffffffffffffffffffffffffff1673ffffffffffffffffffffffffffffffffffffffff1681526020019081526020016000205411610af6576040517f08c379a0000000000000000000000000000000000000000000000000000000008152600401610aed906117ed565b60405180910390fd5b3373ffffffffffffffffffffffffffffffffffffffff166108fc600260003373ffffffffffffffffffffffffffffffffffffffff1673ffffffffffffffffffffffffffffffffffffffff168152602001908152602001600020549081150290604051600060405180830381858888f19350505050158015610b7b573d6000803e3d6000fd5b507f4f0554190111f93f8c2ccef2cc41473f187d7f29ff5a5c308ca41f9dfe4e989a33600260003373ffffffffffffffffffffffffffffffffffffffff1673ffffffffffffffffffffffffffffffffffffffff16815260200190815260200160002054604051610bec929190611692565b60405180910390a16000600260003373ffffffffffffffffffffffffffffffffffffffff1673ffffffffffffffffffffffffffffffffffffffff16815260200190815260200160002081905550565b600060016000838152602001908152602001600020905081816000015414610c98576040517f08c379a0000000000000000000000000000000000000000000000000000000008152600401610c8f9061139d565b60405180910390fd5b3373ffffffffffffffffffffffffffffffffffffffff168160020160009054906101000a900473ffffffffffffffffffffffffffffffffffffffff1673ffffffffffffffffffffffffffffffffffffffff1614610d2a576040517f08c379a0000000000000000000000000000000000000000000000000000000008152600401610d219061187f565b60405180910390fd5b600015158160040160009054906101000a900460ff16151514610d82576040517f08c379a0000000000000000000000000000000000000000000000000000000008152600401610d7990611911565b60405180910390fd5b600015158160040160019054906101000a900460ff16151514610dda576040517f08c379a0000000000000000000000000000000000000000000000000000000008152600401610dd1906119a3565b60405180910390fd5b600360009054906101000a900473ffffffffffffffffffffffffffffffffffffffff1673ffffffffffffffffffffffffffffffffffffffff166323b872dd303384600101546040518463ffffffff1660e01b8152600401610e3d93929190611190565b600060405180830381600087803b158015610e5757600080fd5b505af1158015610e6b573d6000803e3d6000fd5b5050505060018160040160016101000a81548160ff0219169083151502179055507f91d2f4b88d4b8742c308058647957b66cfb290518e186fc31bac6466d57fcb28600360009054906101000a900473ffffffffffffffffffffffffffffffffffffffff1673ffffffffffffffffffffffffffffffffffffffff16632e7700f06040518163ffffffff1660e01b8152600401602060405180830381865afa158015610f1a573d6000803e3d6000fd5b505050506040513d601f19601f82011682018060405250810190610f3e9190611253565b30338460030154856001015442604051610f5d96959493929190611a0f565b60405180910390a17f5b166b4d0498ff8c4719999cb6154c5d197e6f020f9fbfcf9d347f84576cfab782826001015433604051610f9c9392919061165b565b60405180910390a15050565b600080fd5b6000819050919050565b610fc081610fad565b8114610fcb57600080fd5b50565b600081359050610fdd81610fb7565b92915050565b60008060408385031215610ffa57610ff9610fa8565b5b600061100885828601610fce565b925050602061101985828601610fce565b9150509250929050565b61102c81610fad565b82525050565b60006020820190506110476000830184611023565b92915050565b600073ffffffffffffffffffffffffffffffffffffffff82169050919050565b60006110788261104d565b9050919050565b6110888161106d565b811461109357600080fd5b50565b6000813590506110a58161107f565b92915050565b6000602082840312156110c1576110c0610fa8565b5b60006110cf84828501611096565b91505092915050565b6000602082840312156110ee576110ed610fa8565b5b60006110fc84828501610fce565b91505092915050565b61110e8161106d565b82525050565b60008115159050919050565b61112981611114565b82525050565b600060c0820190506111446000830189611023565b6111516020830188611023565b61115e6040830187611105565b61116b6060830186611023565b6111786080830185611120565b61118560a0830184611120565b979650505050505050565b60006060820190506111a56000830186611105565b6111b26020830185611105565b6111bf6040830184611023565b949350505050565b7f4e487b7100000000000000000000000000000000000000000000000000000000600052601160045260246000fd5b600061120182610fad565b91507fffffffffffffffffffffffffffffffffffffffffffffffffffffffffffffffff8203611233576112326111c7565b5b600182019050919050565b60008151905061124d81610fb7565b92915050565b60006020828403121561126957611268610fa8565b5b60006112778482850161123e565b91505092915050565b600082825260208201905092915050565b7f4d616b65204f6666657200000000000000000000000000000000000000000000600082015250565b60006112c7600a83611280565b91506112d282611291565b602082019050919050565b600060e0820190506112f26000830189611023565b6112ff6020830188611105565b61130c6040830187611105565b818103606083015261131d816112ba565b905061132c6080830186611023565b61133960a0830185611023565b61134660c0830184611023565b979650505050505050565b7f546865206f66666572206d757374206578697374000000000000000000000000600082015250565b6000611387601483611280565b915061139282611351565b602082019050919050565b600060208201905081810360008301526113b68161137a565b9050919050565b7f546865206f776e6572206f6620746865206f666665722063616e6e6f7420666960008201527f6c6c206974000000000000000000000000000000000000000000000000000000602082015250565b6000611419602583611280565b9150611424826113bd565b604082019050919050565b600060208201905081810360008301526114488161140c565b9050919050565b7f416e206f666665722063616e6e6f742062652066756c66696c6c65642074776960008201527f6365000000000000000000000000000000000000000000000000000000000000602082015250565b60006114ab602283611280565b91506114b68261144f565b604082019050919050565b600060208201905081810360008301526114da8161149e565b9050919050565b7f412063616e63656c6c6564206f666665722063616e6e6f742062652066756c6660008201527f696c6c6564000000000000000000000000000000000000000000000000000000602082015250565b600061153d602583611280565b9150611548826114e1565b604082019050919050565b6000602082019050818103600083015261156c81611530565b9050919050565b7f5468652045544820616d6f756e742073686f756c64206d61746368207769746860008201527f20746865204e4654205072696365000000000000000000000000000000000000602082015250565b60006115cf602e83611280565b91506115da82611573565b604082019050919050565b600060208201905081810360008301526115fe816115c2565b9050919050565b600061161082610fad565b915061161b83610fad565b9250827fffffffffffffffffffffffffffffffffffffffffffffffffffffffffffffffff038211156116505761164f6111c7565b5b828201905092915050565b60006060820190506116706000830186611023565b61167d6020830185611023565b61168a6040830184611105565b949350505050565b60006040820190506116a76000830185611105565b6116b46020830184611023565b9392505050565b7f43616e204f666665720000000000000000000000000000000000000000000000600082015250565b60006116f1600983611280565b91506116fc826116bb565b602082019050919050565b600060e08201905061171c6000830189611023565b6117296020830188611105565b6117366040830187611105565b8181036060830152611747816116e4565b90506117566080830186611023565b61176360a0830185611023565b61177060c0830184611023565b979650505050505050565b7f54686973207573657220686173206e6f2066756e647320746f20626520636c6160008201527f696d656400000000000000000000000000000000000000000000000000000000602082015250565b60006117d7602483611280565b91506117e28261177b565b604082019050919050565b60006020820190508181036000830152611806816117ca565b9050919050565b7f546865206f666665722063616e206f6e6c792062652063616e63656c6564206260008201527f7920746865206f776e6572000000000000000000000000000000000000000000602082015250565b6000611869602b83611280565b91506118748261180d565b604082019050919050565b600060208201905081810360008301526118988161185c565b9050919050565b7f412066756c66696c6c6564206f666665722063616e6e6f742062652063616e6360008201527f656c6c6564000000000000000000000000000000000000000000000000000000602082015250565b60006118fb602583611280565b91506119068261189f565b604082019050919050565b6000602082019050818103600083015261192a816118ee565b9050919050565b7f416e206f666665722063616e6e6f742062652063616e63656c6c65642074776960008201527f6365000000000000000000000000000000000000000000000000000000000000602082015250565b600061198d602283611280565b915061199882611931565b604082019050919050565b600060208201905081810360008301526119bc81611980565b9050919050565b7f43616e63656c204f666665720000000000000000000000000000000000000000600082015250565b60006119f9600c83611280565b9150611a04826119c3565b602082019050919050565b600060e082019050611a246000830189611023565b611a316020830188611105565b611a3e6040830187611105565b8181036060830152611a4f816119ec565b9050611a5e6080830186611023565b611a6b60a0830185611023565b611a7860c0830184611023565b97965050505050505056fea2646970667358221220f53007aa3c1bcfa843a86bd78fc0897761cf49fdc04b286411e56dde67186ad864736f6c634300080d0033",
  "immutableReferences": {},
  "source": "// SPDX-License-Identifier: MIT\npragma solidity ^0.8.0;\n\nimport \"./NFTCollection.sol\";\n\ncontract NFTMarketplace {\n    uint256 public offerCount;\n    mapping(uint256 => _Offer) public offers;\n    mapping(address => uint256) public userFunds;\n    NFTCollection nftCollection;\n    struct _Offer {\n        uint256 offerId;\n        uint256 id;\n        address user;\n        uint256 price;\n        bool fulfilled;\n        bool cancelled;\n    }\n\n    event Offer(\n        uint256 offerId,\n        uint256 id,\n        address user,\n        uint256 price,\n        bool fulfilled,\n        bool cancelled\n    );\n    event EventListener(\n        uint256 id,\n        address from,\n        address to,\n        string eventName,\n        uint256 ethPrice,\n        uint256 tokenId,\n        uint256 created_at\n    );\n    event OfferFilled(uint256 offerId, uint256 id, address newOwner);\n    event OfferCancelled(uint256 offerId, uint256 id, address owner);\n    event ClaimFunds(address user, uint256 amount);\n    event updateNFTOwner(address owner, uint256 tokenId);\n\n    constructor(address _nftCollection) {\n        nftCollection = NFTCollection(_nftCollection);\n    }\n\n    function makeOffer(uint256 _id, uint256 _price) public {\n        nftCollection.transferFrom(msg.sender, address(this), _id);\n        offerCount++;\n        offers[offerCount] = _Offer(\n            offerCount,\n            _id,\n            msg.sender,\n            _price,\n            false,\n            false\n        );\n        emit Offer(offerCount, _id, msg.sender, _price, false, false);\n        nftCollection.setTransactionCount();\n        emit EventListener(\n            nftCollection.getTransactionCount(),\n            msg.sender,\n            address(this),\n            \"Make Offer\",\n            _price,\n            _id,\n            block.timestamp\n        );\n    }\n\n    function fillOffer(uint256 _offerId) public payable {\n        _Offer storage _offer = offers[_offerId];\n        require(_offer.offerId == _offerId, \"The offer must exist\");\n        require(\n            _offer.user != msg.sender,\n            \"The owner of the offer cannot fill it\"\n        );\n        require(!_offer.fulfilled, \"An offer cannot be fulfilled twice\");\n        require(!_offer.cancelled, \"A cancelled offer cannot be fulfilled\");\n        require(\n            msg.value == _offer.price,\n            \"The ETH amount should match with the NFT Price\"\n        );\n        nftCollection.transferFrom(address(this), msg.sender, _offer.id);\n        _offer.fulfilled = true;\n        userFunds[_offer.user] += msg.value;\n        emit OfferFilled(_offerId, _offer.id, msg.sender);\n\n        nftCollection.setTransactionCount();\n        emit updateNFTOwner(msg.sender, _offer.id);\n        emit EventListener(\n            nftCollection.getTransactionCount(),\n            address(this),\n            msg.sender,\n            \"Can Offer\",\n            _offer.price,\n            _offer.id,\n            block.timestamp\n        );\n    }\n\n    function cancelOffer(uint256 _offerId) public {\n        _Offer storage _offer = offers[_offerId];\n        require(_offer.offerId == _offerId, \"The offer must exist\");\n        require(\n            _offer.user == msg.sender,\n            \"The offer can only be canceled by the owner\"\n        );\n        require(\n            _offer.fulfilled == false,\n            \"A fulfilled offer cannot be cancelled\"\n        );\n        require(\n            _offer.cancelled == false,\n            \"An offer cannot be cancelled twice\"\n        );\n        nftCollection.transferFrom(address(this), msg.sender, _offer.id);\n        _offer.cancelled = true;\n        emit EventListener(\n            nftCollection.getTransactionCount(),\n            address(this),\n            msg.sender,\n            \"Cancel Offer\",\n            _offer.price,\n            _offer.id,\n            block.timestamp\n        );\n        emit OfferCancelled(_offerId, _offer.id, msg.sender);\n    }\n\n    function claimFunds() public {\n        require(\n            userFunds[msg.sender] > 0,\n            \"This user has no funds to be claimed\"\n        );\n        payable(msg.sender).transfer(userFunds[msg.sender]);\n        emit ClaimFunds(msg.sender, userFunds[msg.sender]);\n        userFunds[msg.sender] = 0;\n    }\n\n    // Fallback: reverts if Ether is sent to this smart-contract by mistake\n    fallback() external {\n        revert();\n    }\n}\n",
  "sourcePath": "/Users/giangtran/Desktop/workspace/nft-marketplace/src/contracts/NFTMarketplace.sol",
  "compiler": {
    "name": "solc",
    "version": "0.8.13+commit.abaa5c0e.Emscripten.clang"
  },
  "schemaVersion": "3.4.6",
  "updatedAt": "2022-05-05T16:04:30.488Z",
  "devdoc": {
    "kind": "dev",
    "methods": {},
    "version": 1
  },
  "userdoc": {
    "kind": "user",
    "methods": {},
    "version": 1
  }
}