{
  "contractName": "NFTMarketplace",
  "abi": [
    {
      "inputs": [
        {
          "internalType": "address",
          "name": "_nftCollection",
          "type": "address"
        }
      ],
      "stateMutability": "nonpayable",
      "type": "constructor"
    },
    {
      "anonymous": false,
      "inputs": [
        {
          "indexed": false,
          "internalType": "address",
          "name": "user",
          "type": "address"
        },
        {
          "indexed": false,
          "internalType": "uint256",
          "name": "amount",
          "type": "uint256"
        }
      ],
      "name": "ClaimFunds",
      "type": "event"
    },
    {
      "anonymous": false,
      "inputs": [
        {
          "indexed": false,
          "internalType": "uint256",
          "name": "id",
          "type": "uint256"
        },
        {
          "indexed": false,
          "internalType": "address",
          "name": "from",
          "type": "address"
        },
        {
          "indexed": false,
          "internalType": "address",
          "name": "to",
          "type": "address"
        },
        {
          "indexed": false,
          "internalType": "string",
          "name": "eventName",
          "type": "string"
        },
        {
          "indexed": false,
          "internalType": "uint256",
          "name": "ethPrice",
          "type": "uint256"
        },
        {
          "indexed": false,
          "internalType": "uint256",
          "name": "tokenId",
          "type": "uint256"
        },
        {
          "indexed": false,
          "internalType": "uint256",
          "name": "created_at",
          "type": "uint256"
        }
      ],
      "name": "EventListener",
      "type": "event"
    },
    {
      "anonymous": false,
      "inputs": [
        {
          "indexed": false,
          "internalType": "uint256",
          "name": "offerId",
          "type": "uint256"
        },
        {
          "indexed": false,
          "internalType": "uint256",
          "name": "id",
          "type": "uint256"
        },
        {
          "indexed": false,
          "internalType": "address",
          "name": "user",
          "type": "address"
        },
        {
          "indexed": false,
          "internalType": "address",
          "name": "minter",
          "type": "address"
        },
        {
          "indexed": false,
          "internalType": "uint256",
          "name": "price",
          "type": "uint256"
        },
        {
          "indexed": false,
          "internalType": "bool",
          "name": "fulfilled",
          "type": "bool"
        },
        {
          "indexed": false,
          "internalType": "bool",
          "name": "cancelled",
          "type": "bool"
        }
      ],
      "name": "Offer",
      "type": "event"
    },
    {
      "anonymous": false,
      "inputs": [
        {
          "indexed": false,
          "internalType": "uint256",
          "name": "offerId",
          "type": "uint256"
        },
        {
          "indexed": false,
          "internalType": "uint256",
          "name": "id",
          "type": "uint256"
        },
        {
          "indexed": false,
          "internalType": "address",
          "name": "owner",
          "type": "address"
        }
      ],
      "name": "OfferCancelled",
      "type": "event"
    },
    {
      "anonymous": false,
      "inputs": [
        {
          "indexed": false,
          "internalType": "uint256",
          "name": "offerId",
          "type": "uint256"
        },
        {
          "indexed": false,
          "internalType": "uint256",
          "name": "id",
          "type": "uint256"
        },
        {
          "indexed": false,
          "internalType": "address",
          "name": "newOwner",
          "type": "address"
        }
      ],
      "name": "OfferFilled",
      "type": "event"
    },
    {
      "anonymous": false,
      "inputs": [
        {
          "indexed": false,
          "internalType": "address",
          "name": "owner",
          "type": "address"
        },
        {
          "indexed": false,
          "internalType": "uint256",
          "name": "tokenId",
          "type": "uint256"
        }
      ],
      "name": "updateNFTOwner",
      "type": "event"
    },
    {
      "stateMutability": "nonpayable",
      "type": "fallback"
    },
    {
      "inputs": [],
      "name": "offerCount",
      "outputs": [
        {
          "internalType": "uint256",
          "name": "",
          "type": "uint256"
        }
      ],
      "stateMutability": "view",
      "type": "function",
      "constant": true
    },
    {
      "inputs": [
        {
          "internalType": "uint256",
          "name": "",
          "type": "uint256"
        }
      ],
      "name": "offers",
      "outputs": [
        {
          "internalType": "uint256",
          "name": "offerId",
          "type": "uint256"
        },
        {
          "internalType": "uint256",
          "name": "id",
          "type": "uint256"
        },
        {
          "internalType": "address",
          "name": "user",
          "type": "address"
        },
        {
          "internalType": "address",
          "name": "minter",
          "type": "address"
        },
        {
          "internalType": "uint256",
          "name": "price",
          "type": "uint256"
        },
        {
          "internalType": "bool",
          "name": "fulfilled",
          "type": "bool"
        },
        {
          "internalType": "bool",
          "name": "cancelled",
          "type": "bool"
        }
      ],
      "stateMutability": "view",
      "type": "function",
      "constant": true
    },
    {
      "inputs": [
        {
          "internalType": "uint256",
          "name": "_id",
          "type": "uint256"
        },
        {
          "internalType": "uint256",
          "name": "_price",
          "type": "uint256"
        },
        {
          "internalType": "address",
          "name": "_minter",
          "type": "address"
        }
      ],
      "name": "makeOffer",
      "outputs": [],
      "stateMutability": "nonpayable",
      "type": "function"
    },
    {
      "inputs": [
        {
          "internalType": "uint256",
          "name": "_offerId",
          "type": "uint256"
        }
      ],
      "name": "fillOffer",
      "outputs": [],
      "stateMutability": "payable",
      "type": "function",
      "payable": true
    },
    {
      "inputs": [
        {
          "internalType": "uint256",
          "name": "_offerId",
          "type": "uint256"
        }
      ],
      "name": "cancelOffer",
      "outputs": [],
      "stateMutability": "nonpayable",
      "type": "function"
    },
    {
      "inputs": [],
      "name": "claimFunds",
      "outputs": [],
      "stateMutability": "payable",
      "type": "function",
      "payable": true
    }
  ],
  "bytecode": "0x60806040523480156200001157600080fd5b5060405162001cc538038062001cc58339818101604052810190620000379190620000e9565b80600360006101000a81548173ffffffffffffffffffffffffffffffffffffffff021916908373ffffffffffffffffffffffffffffffffffffffff160217905550506200011b565b600080fd5b600073ffffffffffffffffffffffffffffffffffffffff82169050919050565b6000620000b18262000084565b9050919050565b620000c381620000a4565b8114620000cf57600080fd5b50565b600081519050620000e381620000b8565b92915050565b6000602082840312156200010257620001016200007f565b5b60006200011284828501620000d2565b91505092915050565b611b9a806200012b6000396000f3fe6080604052600436106100595760003560e01c80631115c24d1461006c5780636457c4f81461009757806385dba861146100c05780638a72ea6a146100dc578063ac3077731461011f578063ef706adf146101295761005a565b5b34801561006657600080fd5b50600080fd5b34801561007857600080fd5b50610081610152565b60405161008e9190610ff4565b60405180910390f35b3480156100a357600080fd5b506100be60048036038101906100b9919061109e565b610158565b005b6100da60048036038101906100d591906110f1565b610508565b005b3480156100e857600080fd5b5061010360048036038101906100fe91906110f1565b610a83565b6040516101169796959493929190611148565b60405180910390f35b610127610b1f565b005b34801561013557600080fd5b50610150600480360381019061014b91906110f1565b610c6e565b005b60005481565b600360009054906101000a900473ffffffffffffffffffffffffffffffffffffffff1673ffffffffffffffffffffffffffffffffffffffff166323b872dd3330866040518463ffffffff1660e01b81526004016101b7939291906111b7565b600060405180830381600087803b1580156101d157600080fd5b505af11580156101e5573d6000803e3d6000fd5b505050506000808154809291906101fb9061121d565b91905055506040518060e0016040528060005481526020018481526020013373ffffffffffffffffffffffffffffffffffffffff1681526020018273ffffffffffffffffffffffffffffffffffffffff168152602001838152602001600015158152602001600015158152506001600080548152602001908152602001600020600082015181600001556020820151816001015560408201518160020160006101000a81548173ffffffffffffffffffffffffffffffffffffffff021916908373ffffffffffffffffffffffffffffffffffffffff16021790555060608201518160030160006101000a81548173ffffffffffffffffffffffffffffffffffffffff021916908373ffffffffffffffffffffffffffffffffffffffff1602179055506080820151816004015560a08201518160050160006101000a81548160ff02191690831515021790555060c08201518160050160016101000a81548160ff0219169083151502179055509050507f249fa81f81093459de06b664d6367513e2f73d9bffce4b19ca48308dfa22803a600054843384866000806040516103a89796959493929190611148565b60405180910390a1600360009054906101000a900473ffffffffffffffffffffffffffffffffffffffff1673ffffffffffffffffffffffffffffffffffffffff16639fd068696040518163ffffffff1660e01b8152600401600060405180830381600087803b15801561041a57600080fd5b505af115801561042e573d6000803e3d6000fd5b505050507f91d2f4b88d4b8742c308058647957b66cfb290518e186fc31bac6466d57fcb28600360009054906101000a900473ffffffffffffffffffffffffffffffffffffffff1673ffffffffffffffffffffffffffffffffffffffff16632e7700f06040518163ffffffff1660e01b8152600401602060405180830381865afa1580156104c0573d6000803e3d6000fd5b505050506040513d601f19601f820116820180604052508101906104e4919061127a565b33308587426040516104fb96959493929190611304565b60405180910390a1505050565b600060016000838152602001908152602001600020905081816000015414610565576040517f08c379a000000000000000000000000000000000000000000000000000000000815260040161055c906113c4565b60405180910390fd5b3373ffffffffffffffffffffffffffffffffffffffff168160020160009054906101000a900473ffffffffffffffffffffffffffffffffffffffff1673ffffffffffffffffffffffffffffffffffffffff16036105f7576040517f08c379a00000000000000000000000000000000000000000000000000000000081526004016105ee90611456565b60405180910390fd5b8060050160009054906101000a900460ff1615610649576040517f08c379a0000000000000000000000000000000000000000000000000000000008152600401610640906114e8565b60405180910390fd5b8060050160019054906101000a900460ff161561069b576040517f08c379a00000000000000000000000000000000000000000000000000000000081526004016106929061157a565b60405180910390fd5b806004015434146106e1576040517f08c379a00000000000000000000000000000000000000000000000000000000081526004016106d89061160c565b60405180910390fd5b600360009054906101000a900473ffffffffffffffffffffffffffffffffffffffff1673ffffffffffffffffffffffffffffffffffffffff166323b872dd303384600101546040518463ffffffff1660e01b8152600401610744939291906111b7565b600060405180830381600087803b15801561075e57600080fd5b505af1158015610772573d6000803e3d6000fd5b5050505060018160050160006101000a81548160ff021916908315150217905550606434605a6107a2919061162c565b6107ac91906116b5565b600260008360020160009054906101000a900473ffffffffffffffffffffffffffffffffffffffff1673ffffffffffffffffffffffffffffffffffffffff1673ffffffffffffffffffffffffffffffffffffffff168152602001908152602001600020600082825461081e91906116e6565b925050819055508060030160009054906101000a900473ffffffffffffffffffffffffffffffffffffffff1673ffffffffffffffffffffffffffffffffffffffff166108fc606434600a610872919061162c565b61087c91906116b5565b9081150290604051600060405180830381858888f193505050501580156108a7573d6000803e3d6000fd5b507fd9157c065213ada613694e84b1e27fe2efd62d85c6b82bd6c842a4999491e72a828260010154336040516108df9392919061173c565b60405180910390a1600360009054906101000a900473ffffffffffffffffffffffffffffffffffffffff1673ffffffffffffffffffffffffffffffffffffffff16639fd068696040518163ffffffff1660e01b8152600401600060405180830381600087803b15801561095157600080fd5b505af1158015610965573d6000803e3d6000fd5b505050507fae41bd7e22d87753d139259f1de18b0c5a27754970ef7c591d74b9ef0c8a47cd33826001015460405161099e929190611773565b60405180910390a17f91d2f4b88d4b8742c308058647957b66cfb290518e186fc31bac6466d57fcb28600360009054906101000a900473ffffffffffffffffffffffffffffffffffffffff1673ffffffffffffffffffffffffffffffffffffffff16632e7700f06040518163ffffffff1660e01b8152600401602060405180830381865afa158015610a34573d6000803e3d6000fd5b505050506040513d601f19601f82011682018060405250810190610a58919061127a565b30338460040154856001015442604051610a77969594939291906117e8565b60405180910390a15050565b60016020528060005260406000206000915090508060000154908060010154908060020160009054906101000a900473ffffffffffffffffffffffffffffffffffffffff16908060030160009054906101000a900473ffffffffffffffffffffffffffffffffffffffff16908060040154908060050160009054906101000a900460ff16908060050160019054906101000a900460ff16905087565b6000600260003373ffffffffffffffffffffffffffffffffffffffff1673ffffffffffffffffffffffffffffffffffffffff16815260200190815260200160002054905060008111610ba6576040517f08c379a0000000000000000000000000000000000000000000000000000000008152600401610b9d906118ce565b60405180910390fd5b6000600260003373ffffffffffffffffffffffffffffffffffffffff1673ffffffffffffffffffffffffffffffffffffffff168152602001908152602001600020819055503373ffffffffffffffffffffffffffffffffffffffff166108fc829081150290604051600060405180830381858888f19350505050158015610c31573d6000803e3d6000fd5b507f4f0554190111f93f8c2ccef2cc41473f187d7f29ff5a5c308ca41f9dfe4e989a3382604051610c63929190611773565b60405180910390a150565b600060016000838152602001908152602001600020905081816000015414610ccb576040517f08c379a0000000000000000000000000000000000000000000000000000000008152600401610cc2906113c4565b60405180910390fd5b3373ffffffffffffffffffffffffffffffffffffffff168160020160009054906101000a900473ffffffffffffffffffffffffffffffffffffffff1673ffffffffffffffffffffffffffffffffffffffff1614610d5d576040517f08c379a0000000000000000000000000000000000000000000000000000000008152600401610d5490611960565b60405180910390fd5b600015158160050160009054906101000a900460ff16151514610db5576040517f08c379a0000000000000000000000000000000000000000000000000000000008152600401610dac906119f2565b60405180910390fd5b600015158160050160019054906101000a900460ff16151514610e0d576040517f08c379a0000000000000000000000000000000000000000000000000000000008152600401610e0490611a84565b60405180910390fd5b600360009054906101000a900473ffffffffffffffffffffffffffffffffffffffff1673ffffffffffffffffffffffffffffffffffffffff166323b872dd303384600101546040518463ffffffff1660e01b8152600401610e70939291906111b7565b600060405180830381600087803b158015610e8a57600080fd5b505af1158015610e9e573d6000803e3d6000fd5b5050505060018160050160016101000a81548160ff0219169083151502179055507f91d2f4b88d4b8742c308058647957b66cfb290518e186fc31bac6466d57fcb28600360009054906101000a900473ffffffffffffffffffffffffffffffffffffffff1673ffffffffffffffffffffffffffffffffffffffff16632e7700f06040518163ffffffff1660e01b8152600401602060405180830381865afa158015610f4d573d6000803e3d6000fd5b505050506040513d601f19601f82011682018060405250810190610f71919061127a565b30338460040154856001015442604051610f9096959493929190611af0565b60405180910390a17f5b166b4d0498ff8c4719999cb6154c5d197e6f020f9fbfcf9d347f84576cfab782826001015433604051610fcf9392919061173c565b60405180910390a15050565b6000819050919050565b610fee81610fdb565b82525050565b60006020820190506110096000830184610fe5565b92915050565b600080fd5b61101d81610fdb565b811461102857600080fd5b50565b60008135905061103a81611014565b92915050565b600073ffffffffffffffffffffffffffffffffffffffff82169050919050565b600061106b82611040565b9050919050565b61107b81611060565b811461108657600080fd5b50565b60008135905061109881611072565b92915050565b6000806000606084860312156110b7576110b661100f565b5b60006110c58682870161102b565b93505060206110d68682870161102b565b92505060406110e786828701611089565b9150509250925092565b6000602082840312156111075761110661100f565b5b60006111158482850161102b565b91505092915050565b61112781611060565b82525050565b60008115159050919050565b6111428161112d565b82525050565b600060e08201905061115d600083018a610fe5565b61116a6020830189610fe5565b611177604083018861111e565b611184606083018761111e565b6111916080830186610fe5565b61119e60a0830185611139565b6111ab60c0830184611139565b98975050505050505050565b60006060820190506111cc600083018661111e565b6111d9602083018561111e565b6111e66040830184610fe5565b949350505050565b7f4e487b7100000000000000000000000000000000000000000000000000000000600052601160045260246000fd5b600061122882610fdb565b91507fffffffffffffffffffffffffffffffffffffffffffffffffffffffffffffffff820361125a576112596111ee565b5b600182019050919050565b60008151905061127481611014565b92915050565b6000602082840312156112905761128f61100f565b5b600061129e84828501611265565b91505092915050565b600082825260208201905092915050565b7f4d616b65204f6666657200000000000000000000000000000000000000000000600082015250565b60006112ee600a836112a7565b91506112f9826112b8565b602082019050919050565b600060e0820190506113196000830189610fe5565b611326602083018861111e565b611333604083018761111e565b8181036060830152611344816112e1565b90506113536080830186610fe5565b61136060a0830185610fe5565b61136d60c0830184610fe5565b979650505050505050565b7f546865206f66666572206d757374206578697374000000000000000000000000600082015250565b60006113ae6014836112a7565b91506113b982611378565b602082019050919050565b600060208201905081810360008301526113dd816113a1565b9050919050565b7f546865206f776e6572206f6620746865206f666665722063616e6e6f7420666960008201527f6c6c206974000000000000000000000000000000000000000000000000000000602082015250565b60006114406025836112a7565b915061144b826113e4565b604082019050919050565b6000602082019050818103600083015261146f81611433565b9050919050565b7f416e206f666665722063616e6e6f742062652066756c66696c6c65642074776960008201527f6365000000000000000000000000000000000000000000000000000000000000602082015250565b60006114d26022836112a7565b91506114dd82611476565b604082019050919050565b60006020820190508181036000830152611501816114c5565b9050919050565b7f412063616e63656c6c6564206f666665722063616e6e6f742062652066756c6660008201527f696c6c6564000000000000000000000000000000000000000000000000000000602082015250565b60006115646025836112a7565b915061156f82611508565b604082019050919050565b6000602082019050818103600083015261159381611557565b9050919050565b7f5468652045544820616d6f756e742073686f756c64206d61746368207769746860008201527f20746865204e4654205072696365000000000000000000000000000000000000602082015250565b60006115f6602e836112a7565b91506116018261159a565b604082019050919050565b60006020820190508181036000830152611625816115e9565b9050919050565b600061163782610fdb565b915061164283610fdb565b9250817fffffffffffffffffffffffffffffffffffffffffffffffffffffffffffffffff048311821515161561167b5761167a6111ee565b5b828202905092915050565b7f4e487b7100000000000000000000000000000000000000000000000000000000600052601260045260246000fd5b60006116c082610fdb565b91506116cb83610fdb565b9250826116db576116da611686565b5b828204905092915050565b60006116f182610fdb565b91506116fc83610fdb565b9250827fffffffffffffffffffffffffffffffffffffffffffffffffffffffffffffffff03821115611731576117306111ee565b5b828201905092915050565b60006060820190506117516000830186610fe5565b61175e6020830185610fe5565b61176b604083018461111e565b949350505050565b6000604082019050611788600083018561111e565b6117956020830184610fe5565b9392505050565b7f4275790000000000000000000000000000000000000000000000000000000000600082015250565b60006117d26003836112a7565b91506117dd8261179c565b602082019050919050565b600060e0820190506117fd6000830189610fe5565b61180a602083018861111e565b611817604083018761111e565b8181036060830152611828816117c5565b90506118376080830186610fe5565b61184460a0830185610fe5565b61185160c0830184610fe5565b979650505050505050565b7f54686973207573657220686173206e6f2066756e647320746f20626520636c6160008201527f696d656400000000000000000000000000000000000000000000000000000000602082015250565b60006118b86024836112a7565b91506118c38261185c565b604082019050919050565b600060208201905081810360008301526118e7816118ab565b9050919050565b7f546865206f666665722063616e206f6e6c792062652063616e63656c6564206260008201527f7920746865206f776e6572000000000000000000000000000000000000000000602082015250565b600061194a602b836112a7565b9150611955826118ee565b604082019050919050565b600060208201905081810360008301526119798161193d565b9050919050565b7f412066756c66696c6c6564206f666665722063616e6e6f742062652063616e6360008201527f656c6c6564000000000000000000000000000000000000000000000000000000602082015250565b60006119dc6025836112a7565b91506119e782611980565b604082019050919050565b60006020820190508181036000830152611a0b816119cf565b9050919050565b7f416e206f666665722063616e6e6f742062652063616e63656c6c65642074776960008201527f6365000000000000000000000000000000000000000000000000000000000000602082015250565b6000611a6e6022836112a7565b9150611a7982611a12565b604082019050919050565b60006020820190508181036000830152611a9d81611a61565b9050919050565b7f43616e63656c204f666665720000000000000000000000000000000000000000600082015250565b6000611ada600c836112a7565b9150611ae582611aa4565b602082019050919050565b600060e082019050611b056000830189610fe5565b611b12602083018861111e565b611b1f604083018761111e565b8181036060830152611b3081611acd565b9050611b3f6080830186610fe5565b611b4c60a0830185610fe5565b611b5960c0830184610fe5565b97965050505050505056fea2646970667358221220e479baddc95c1305594b12849bf2108fd981572b05e5e7bb70346cea223e6a6864736f6c634300080d0033",
  "immutableReferences": {},
  "source": "// SPDX-License-Identifier: MIT\npragma solidity ^0.8.0;\n\nimport \"./NFTCollection.sol\";\n\ncontract NFTMarketplace {\n    uint256 public offerCount;\n    mapping(uint256 => _Offer) public offers;\n    mapping(address => uint256) userFunds;\n    NFTCollection nftCollection;\n    struct _Offer {\n        uint256 offerId;\n        uint256 id;\n        address user;\n        address minter;\n        uint256 price;\n        bool fulfilled;\n        bool cancelled;\n    }\n\n    event Offer(\n        uint256 offerId,\n        uint256 id,\n        address user,\n        address minter,\n        uint256 price,\n        bool fulfilled,\n        bool cancelled\n    );\n    event EventListener(\n        uint256 id,\n        address from,\n        address to,\n        string eventName,\n        uint256 ethPrice,\n        uint256 tokenId,\n        uint256 created_at\n    );\n    event OfferFilled(uint256 offerId, uint256 id, address newOwner);\n    event OfferCancelled(uint256 offerId, uint256 id, address owner);\n    event ClaimFunds(address user, uint256 amount);\n    event updateNFTOwner(address owner, uint256 tokenId);\n\n    constructor(address _nftCollection) {\n        nftCollection = NFTCollection(_nftCollection);\n    }\n\n    function makeOffer(uint256 _id, uint256 _price , address _minter) public {\n        nftCollection.transferFrom(msg.sender, address(this), _id);\n        offerCount++;\n        offers[offerCount] = _Offer(\n            offerCount,\n            _id,\n            msg.sender,\n            _minter,\n            _price,\n            false,\n            false\n        );\n        emit Offer(offerCount, _id, msg.sender, _minter , _price, false, false);\n        nftCollection.setTransactionCount();\n        emit EventListener(\n            nftCollection.getTransactionCount(),\n            msg.sender,\n            address(this),\n            \"Make Offer\",\n            _price,\n            _id,\n            block.timestamp\n        );\n    }\n\n    function fillOffer(uint256 _offerId) public payable {\n        _Offer storage _offer = offers[_offerId];\n        require(_offer.offerId == _offerId, \"The offer must exist\");\n        require(\n            _offer.user != msg.sender,\n            \"The owner of the offer cannot fill it\"\n        );\n        require(!_offer.fulfilled, \"An offer cannot be fulfilled twice\");\n        require(!_offer.cancelled, \"A cancelled offer cannot be fulfilled\");\n        require(\n            msg.value == _offer.price,\n            \"The ETH amount should match with the NFT Price\"\n        );\n        nftCollection.transferFrom(address(this), msg.sender, _offer.id);\n        _offer.fulfilled = true;\n        userFunds[_offer.user] += (90 * msg.value )/100;\n        //tranfer eth to minter\n        payable(_offer.minter).transfer((10 * msg.value)/100);\n        emit OfferFilled(_offerId, _offer.id, msg.sender);\n        \n        //listen event from graph\n        nftCollection.setTransactionCount();\n        emit updateNFTOwner(msg.sender, _offer.id);\n        emit EventListener(\n            nftCollection.getTransactionCount(),\n            address(this),\n            msg.sender,\n            \"Buy\",\n            _offer.price,\n            _offer.id,\n            block.timestamp\n        );\n    }\n\n    function cancelOffer(uint256 _offerId) public {\n        _Offer storage _offer = offers[_offerId];\n        require(_offer.offerId == _offerId, \"The offer must exist\");\n        require(\n            _offer.user == msg.sender,\n            \"The offer can only be canceled by the owner\"\n        );\n        require(\n            _offer.fulfilled == false,\n            \"A fulfilled offer cannot be cancelled\"\n        );\n        require(\n            _offer.cancelled == false,\n            \"An offer cannot be cancelled twice\"\n        );\n        nftCollection.transferFrom(address(this), msg.sender, _offer.id);\n        _offer.cancelled = true;\n        emit EventListener(\n            nftCollection.getTransactionCount(),\n            address(this),\n            msg.sender,\n            \"Cancel Offer\",\n            _offer.price,\n            _offer.id,\n            block.timestamp\n        );\n        emit OfferCancelled(_offerId, _offer.id, msg.sender);\n    }\n\n    function claimFunds() public payable{\n        uint256 eth = userFunds[msg.sender];\n        require(\n            eth > 0,\n            \"This user has no funds to be claimed\"\n        );\n        userFunds[msg.sender] = 0;\n        payable(msg.sender).transfer(eth);\n        emit ClaimFunds(msg.sender, eth);\n    }\n    \n\n    // Fallback: reverts if Ether is sent to this smart-contract by mistake\n    fallback() external {\n        revert();\n    }\n}\n",
  "sourcePath": "/Users/giangtran/Desktop/workspace/nft-marketplace/src/contracts/NFTMarketplace.sol",
  "compiler": {
    "name": "solc",
    "version": "0.8.13+commit.abaa5c0e.Emscripten.clang"
  },
  "schemaVersion": "3.4.6",
  "updatedAt": "2022-05-16T17:36:57.727Z",
  "networkType": "ethereum",
  "devdoc": {
    "kind": "dev",
    "methods": {},
    "version": 1
  },
  "userdoc": {
    "kind": "user",
    "methods": {},
    "version": 1
  }
}