{
  "contractName": "NFTMarketplace",
  "abi": [
    {
      "inputs": [
        {
          "internalType": "address",
          "name": "_nftCollection",
          "type": "address"
        }
      ],
      "stateMutability": "nonpayable",
      "type": "constructor"
    },
    {
      "anonymous": false,
      "inputs": [
        {
          "indexed": false,
          "internalType": "address",
          "name": "user",
          "type": "address"
        },
        {
          "indexed": false,
          "internalType": "uint256",
          "name": "amount",
          "type": "uint256"
        }
      ],
      "name": "ClaimFunds",
      "type": "event"
    },
    {
      "anonymous": false,
      "inputs": [
        {
          "indexed": false,
          "internalType": "uint256",
          "name": "id",
          "type": "uint256"
        },
        {
          "indexed": false,
          "internalType": "address",
          "name": "from",
          "type": "address"
        },
        {
          "indexed": false,
          "internalType": "address",
          "name": "to",
          "type": "address"
        },
        {
          "indexed": false,
          "internalType": "string",
          "name": "eventName",
          "type": "string"
        },
        {
          "indexed": false,
          "internalType": "uint256",
          "name": "ethPrice",
          "type": "uint256"
        },
        {
          "indexed": false,
          "internalType": "uint256",
          "name": "tokenId",
          "type": "uint256"
        },
        {
          "indexed": false,
          "internalType": "uint256",
          "name": "created_at",
          "type": "uint256"
        }
      ],
      "name": "EventListener",
      "type": "event"
    },
    {
      "anonymous": false,
      "inputs": [
        {
          "indexed": false,
          "internalType": "uint256",
          "name": "offerId",
          "type": "uint256"
        },
        {
          "indexed": false,
          "internalType": "uint256",
          "name": "id",
          "type": "uint256"
        },
        {
          "indexed": false,
          "internalType": "address",
          "name": "user",
          "type": "address"
        },
        {
          "indexed": false,
          "internalType": "address",
          "name": "minter",
          "type": "address"
        },
        {
          "indexed": false,
          "internalType": "uint256",
          "name": "price",
          "type": "uint256"
        },
        {
          "indexed": false,
          "internalType": "bool",
          "name": "fulfilled",
          "type": "bool"
        },
        {
          "indexed": false,
          "internalType": "bool",
          "name": "cancelled",
          "type": "bool"
        }
      ],
      "name": "Offer",
      "type": "event"
    },
    {
      "anonymous": false,
      "inputs": [
        {
          "indexed": false,
          "internalType": "uint256",
          "name": "offerId",
          "type": "uint256"
        },
        {
          "indexed": false,
          "internalType": "uint256",
          "name": "id",
          "type": "uint256"
        },
        {
          "indexed": false,
          "internalType": "address",
          "name": "owner",
          "type": "address"
        }
      ],
      "name": "OfferCancelled",
      "type": "event"
    },
    {
      "anonymous": false,
      "inputs": [
        {
          "indexed": false,
          "internalType": "uint256",
          "name": "offerId",
          "type": "uint256"
        },
        {
          "indexed": false,
          "internalType": "uint256",
          "name": "id",
          "type": "uint256"
        },
        {
          "indexed": false,
          "internalType": "address",
          "name": "newOwner",
          "type": "address"
        }
      ],
      "name": "OfferFilled",
      "type": "event"
    },
    {
      "anonymous": false,
      "inputs": [
        {
          "indexed": false,
          "internalType": "address",
          "name": "owner",
          "type": "address"
        },
        {
          "indexed": false,
          "internalType": "uint256",
          "name": "tokenId",
          "type": "uint256"
        }
      ],
      "name": "updateNFTOwner",
      "type": "event"
    },
    {
      "stateMutability": "nonpayable",
      "type": "fallback"
    },
    {
      "inputs": [],
      "name": "offerCount",
      "outputs": [
        {
          "internalType": "uint256",
          "name": "",
          "type": "uint256"
        }
      ],
      "stateMutability": "view",
      "type": "function"
    },
    {
      "inputs": [
        {
          "internalType": "uint256",
          "name": "",
          "type": "uint256"
        }
      ],
      "name": "offers",
      "outputs": [
        {
          "internalType": "uint256",
          "name": "offerId",
          "type": "uint256"
        },
        {
          "internalType": "uint256",
          "name": "id",
          "type": "uint256"
        },
        {
          "internalType": "address",
          "name": "user",
          "type": "address"
        },
        {
          "internalType": "address",
          "name": "minter",
          "type": "address"
        },
        {
          "internalType": "uint256",
          "name": "price",
          "type": "uint256"
        },
        {
          "internalType": "bool",
          "name": "fulfilled",
          "type": "bool"
        },
        {
          "internalType": "bool",
          "name": "cancelled",
          "type": "bool"
        }
      ],
      "stateMutability": "view",
      "type": "function"
    },
    {
      "inputs": [
        {
          "internalType": "address",
          "name": "",
          "type": "address"
        }
      ],
      "name": "userFunds",
      "outputs": [
        {
          "internalType": "uint256",
          "name": "",
          "type": "uint256"
        }
      ],
      "stateMutability": "view",
      "type": "function"
    },
    {
      "inputs": [
        {
          "internalType": "uint256",
          "name": "_id",
          "type": "uint256"
        },
        {
          "internalType": "uint256",
          "name": "_price",
          "type": "uint256"
        },
        {
          "internalType": "address",
          "name": "_minter",
          "type": "address"
        }
      ],
      "name": "makeOffer",
      "outputs": [],
      "stateMutability": "nonpayable",
      "type": "function"
    },
    {
      "inputs": [
        {
          "internalType": "uint256",
          "name": "_offerId",
          "type": "uint256"
        }
      ],
      "name": "fillOffer",
      "outputs": [],
      "stateMutability": "payable",
      "type": "function"
    },
    {
      "inputs": [
        {
          "internalType": "uint256",
          "name": "_offerId",
          "type": "uint256"
        }
      ],
      "name": "cancelOffer",
      "outputs": [],
      "stateMutability": "nonpayable",
      "type": "function"
    },
    {
      "inputs": [],
      "name": "claimFunds",
      "outputs": [],
      "stateMutability": "nonpayable",
      "type": "function"
    }
  ],
  "bytecode": "0x60806040523480156200001157600080fd5b5060405162001dd338038062001dd38339818101604052810190620000379190620000e9565b80600360006101000a81548173ffffffffffffffffffffffffffffffffffffffff021916908373ffffffffffffffffffffffffffffffffffffffff160217905550506200011b565b600080fd5b600073ffffffffffffffffffffffffffffffffffffffff82169050919050565b6000620000b18262000084565b9050919050565b620000c381620000a4565b8114620000cf57600080fd5b50565b600081519050620000e381620000b8565b92915050565b6000602082840312156200010257620001016200007f565b5b60006200011284828501620000d2565b91505092915050565b611ca8806200012b6000396000f3fe6080604052600436106100745760003560e01c806385dba8611161004e57806385dba861146101185780638a72ea6a14610134578063ac30777314610177578063ef706adf1461018e57610075565b80631115c24d146100875780636457c4f8146100b25780638387c6e1146100db57610075565b5b34801561008157600080fd5b50600080fd5b34801561009357600080fd5b5061009c6101b7565b6040516100a991906110d5565b60405180910390f35b3480156100be57600080fd5b506100d960048036038101906100d4919061117f565b6101bd565b005b3480156100e757600080fd5b5061010260048036038101906100fd91906111d2565b61056d565b60405161010f91906110d5565b60405180910390f35b610132600480360381019061012d91906111ff565b610585565b005b34801561014057600080fd5b5061015b600480360381019061015691906111ff565b610aec565b60405161016e9796959493929190611256565b60405180910390f35b34801561018357600080fd5b5061018c610b88565b005b34801561019a57600080fd5b506101b560048036038101906101b091906111ff565b610d4f565b005b60005481565b600360009054906101000a900473ffffffffffffffffffffffffffffffffffffffff1673ffffffffffffffffffffffffffffffffffffffff166323b872dd3330866040518463ffffffff1660e01b815260040161021c939291906112c5565b600060405180830381600087803b15801561023657600080fd5b505af115801561024a573d6000803e3d6000fd5b505050506000808154809291906102609061132b565b91905055506040518060e0016040528060005481526020018481526020013373ffffffffffffffffffffffffffffffffffffffff1681526020018273ffffffffffffffffffffffffffffffffffffffff168152602001838152602001600015158152602001600015158152506001600080548152602001908152602001600020600082015181600001556020820151816001015560408201518160020160006101000a81548173ffffffffffffffffffffffffffffffffffffffff021916908373ffffffffffffffffffffffffffffffffffffffff16021790555060608201518160030160006101000a81548173ffffffffffffffffffffffffffffffffffffffff021916908373ffffffffffffffffffffffffffffffffffffffff1602179055506080820151816004015560a08201518160050160006101000a81548160ff02191690831515021790555060c08201518160050160016101000a81548160ff0219169083151502179055509050507f249fa81f81093459de06b664d6367513e2f73d9bffce4b19ca48308dfa22803a6000548433848660008060405161040d9796959493929190611256565b60405180910390a1600360009054906101000a900473ffffffffffffffffffffffffffffffffffffffff1673ffffffffffffffffffffffffffffffffffffffff16639fd068696040518163ffffffff1660e01b8152600401600060405180830381600087803b15801561047f57600080fd5b505af1158015610493573d6000803e3d6000fd5b505050507f91d2f4b88d4b8742c308058647957b66cfb290518e186fc31bac6466d57fcb28600360009054906101000a900473ffffffffffffffffffffffffffffffffffffffff1673ffffffffffffffffffffffffffffffffffffffff16632e7700f06040518163ffffffff1660e01b8152600401602060405180830381865afa158015610525573d6000803e3d6000fd5b505050506040513d601f19601f820116820180604052508101906105499190611388565b333085874260405161056096959493929190611412565b60405180910390a1505050565b60026020528060005260406000206000915090505481565b6000600160008381526020019081526020016000209050818160000154146105e2576040517f08c379a00000000000000000000000000000000000000000000000000000000081526004016105d9906114d2565b60405180910390fd5b3373ffffffffffffffffffffffffffffffffffffffff168160020160009054906101000a900473ffffffffffffffffffffffffffffffffffffffff1673ffffffffffffffffffffffffffffffffffffffff1603610674576040517f08c379a000000000000000000000000000000000000000000000000000000000815260040161066b90611564565b60405180910390fd5b8060050160009054906101000a900460ff16156106c6576040517f08c379a00000000000000000000000000000000000000000000000000000000081526004016106bd906115f6565b60405180910390fd5b8060050160019054906101000a900460ff1615610718576040517f08c379a000000000000000000000000000000000000000000000000000000000815260040161070f90611688565b60405180910390fd5b8060040154341461075e576040517f08c379a00000000000000000000000000000000000000000000000000000000081526004016107559061171a565b60405180910390fd5b600360009054906101000a900473ffffffffffffffffffffffffffffffffffffffff1673ffffffffffffffffffffffffffffffffffffffff166323b872dd303384600101546040518463ffffffff1660e01b81526004016107c1939291906112c5565b600060405180830381600087803b1580156107db57600080fd5b505af11580156107ef573d6000803e3d6000fd5b5050505060018160050160006101000a81548160ff02191690831515021790555034600260008360020160009054906101000a900473ffffffffffffffffffffffffffffffffffffffff1673ffffffffffffffffffffffffffffffffffffffff1673ffffffffffffffffffffffffffffffffffffffff1681526020019081526020016000206000828254610883919061173a565b925050819055507fd9157c065213ada613694e84b1e27fe2efd62d85c6b82bd6c842a4999491e72a828260010154336040516108c193929190611790565b60405180910390a18060030160009054906101000a900473ffffffffffffffffffffffffffffffffffffffff1673ffffffffffffffffffffffffffffffffffffffff166108fc60648360040154600561091a91906117c7565b6109249190611850565b9081150290604051600060405180830381858888f1935050505015801561094f573d6000803e3d6000fd5b50600360009054906101000a900473ffffffffffffffffffffffffffffffffffffffff1673ffffffffffffffffffffffffffffffffffffffff16639fd068696040518163ffffffff1660e01b8152600401600060405180830381600087803b1580156109ba57600080fd5b505af11580156109ce573d6000803e3d6000fd5b505050507fae41bd7e22d87753d139259f1de18b0c5a27754970ef7c591d74b9ef0c8a47cd338260010154604051610a07929190611881565b60405180910390a17f91d2f4b88d4b8742c308058647957b66cfb290518e186fc31bac6466d57fcb28600360009054906101000a900473ffffffffffffffffffffffffffffffffffffffff1673ffffffffffffffffffffffffffffffffffffffff16632e7700f06040518163ffffffff1660e01b8152600401602060405180830381865afa158015610a9d573d6000803e3d6000fd5b505050506040513d601f19601f82011682018060405250810190610ac19190611388565b30338460040154856001015442604051610ae0969594939291906118f6565b60405180910390a15050565b60016020528060005260406000206000915090508060000154908060010154908060020160009054906101000a900473ffffffffffffffffffffffffffffffffffffffff16908060030160009054906101000a900473ffffffffffffffffffffffffffffffffffffffff16908060040154908060050160009054906101000a900460ff16908060050160019054906101000a900460ff16905087565b6000600260003373ffffffffffffffffffffffffffffffffffffffff1673ffffffffffffffffffffffffffffffffffffffff1681526020019081526020016000205411610c0a576040517f08c379a0000000000000000000000000000000000000000000000000000000008152600401610c01906119dc565b60405180910390fd5b3373ffffffffffffffffffffffffffffffffffffffff166108fc600260003373ffffffffffffffffffffffffffffffffffffffff1673ffffffffffffffffffffffffffffffffffffffff168152602001908152602001600020549081150290604051600060405180830381858888f19350505050158015610c8f573d6000803e3d6000fd5b507f4f0554190111f93f8c2ccef2cc41473f187d7f29ff5a5c308ca41f9dfe4e989a33600260003373ffffffffffffffffffffffffffffffffffffffff1673ffffffffffffffffffffffffffffffffffffffff16815260200190815260200160002054604051610d00929190611881565b60405180910390a16000600260003373ffffffffffffffffffffffffffffffffffffffff1673ffffffffffffffffffffffffffffffffffffffff16815260200190815260200160002081905550565b600060016000838152602001908152602001600020905081816000015414610dac576040517f08c379a0000000000000000000000000000000000000000000000000000000008152600401610da3906114d2565b60405180910390fd5b3373ffffffffffffffffffffffffffffffffffffffff168160020160009054906101000a900473ffffffffffffffffffffffffffffffffffffffff1673ffffffffffffffffffffffffffffffffffffffff1614610e3e576040517f08c379a0000000000000000000000000000000000000000000000000000000008152600401610e3590611a6e565b60405180910390fd5b600015158160050160009054906101000a900460ff16151514610e96576040517f08c379a0000000000000000000000000000000000000000000000000000000008152600401610e8d90611b00565b60405180910390fd5b600015158160050160019054906101000a900460ff16151514610eee576040517f08c379a0000000000000000000000000000000000000000000000000000000008152600401610ee590611b92565b60405180910390fd5b600360009054906101000a900473ffffffffffffffffffffffffffffffffffffffff1673ffffffffffffffffffffffffffffffffffffffff166323b872dd303384600101546040518463ffffffff1660e01b8152600401610f51939291906112c5565b600060405180830381600087803b158015610f6b57600080fd5b505af1158015610f7f573d6000803e3d6000fd5b5050505060018160050160016101000a81548160ff0219169083151502179055507f91d2f4b88d4b8742c308058647957b66cfb290518e186fc31bac6466d57fcb28600360009054906101000a900473ffffffffffffffffffffffffffffffffffffffff1673ffffffffffffffffffffffffffffffffffffffff16632e7700f06040518163ffffffff1660e01b8152600401602060405180830381865afa15801561102e573d6000803e3d6000fd5b505050506040513d601f19601f820116820180604052508101906110529190611388565b3033846004015485600101544260405161107196959493929190611bfe565b60405180910390a17f5b166b4d0498ff8c4719999cb6154c5d197e6f020f9fbfcf9d347f84576cfab7828260010154336040516110b093929190611790565b60405180910390a15050565b6000819050919050565b6110cf816110bc565b82525050565b60006020820190506110ea60008301846110c6565b92915050565b600080fd5b6110fe816110bc565b811461110957600080fd5b50565b60008135905061111b816110f5565b92915050565b600073ffffffffffffffffffffffffffffffffffffffff82169050919050565b600061114c82611121565b9050919050565b61115c81611141565b811461116757600080fd5b50565b60008135905061117981611153565b92915050565b600080600060608486031215611198576111976110f0565b5b60006111a68682870161110c565b93505060206111b78682870161110c565b92505060406111c88682870161116a565b9150509250925092565b6000602082840312156111e8576111e76110f0565b5b60006111f68482850161116a565b91505092915050565b600060208284031215611215576112146110f0565b5b60006112238482850161110c565b91505092915050565b61123581611141565b82525050565b60008115159050919050565b6112508161123b565b82525050565b600060e08201905061126b600083018a6110c6565b61127860208301896110c6565b611285604083018861122c565b611292606083018761122c565b61129f60808301866110c6565b6112ac60a0830185611247565b6112b960c0830184611247565b98975050505050505050565b60006060820190506112da600083018661122c565b6112e7602083018561122c565b6112f460408301846110c6565b949350505050565b7f4e487b7100000000000000000000000000000000000000000000000000000000600052601160045260246000fd5b6000611336826110bc565b91507fffffffffffffffffffffffffffffffffffffffffffffffffffffffffffffffff8203611368576113676112fc565b5b600182019050919050565b600081519050611382816110f5565b92915050565b60006020828403121561139e5761139d6110f0565b5b60006113ac84828501611373565b91505092915050565b600082825260208201905092915050565b7f4d616b65204f6666657200000000000000000000000000000000000000000000600082015250565b60006113fc600a836113b5565b9150611407826113c6565b602082019050919050565b600060e08201905061142760008301896110c6565b611434602083018861122c565b611441604083018761122c565b8181036060830152611452816113ef565b905061146160808301866110c6565b61146e60a08301856110c6565b61147b60c08301846110c6565b979650505050505050565b7f546865206f66666572206d757374206578697374000000000000000000000000600082015250565b60006114bc6014836113b5565b91506114c782611486565b602082019050919050565b600060208201905081810360008301526114eb816114af565b9050919050565b7f546865206f776e6572206f6620746865206f666665722063616e6e6f7420666960008201527f6c6c206974000000000000000000000000000000000000000000000000000000602082015250565b600061154e6025836113b5565b9150611559826114f2565b604082019050919050565b6000602082019050818103600083015261157d81611541565b9050919050565b7f416e206f666665722063616e6e6f742062652066756c66696c6c65642074776960008201527f6365000000000000000000000000000000000000000000000000000000000000602082015250565b60006115e06022836113b5565b91506115eb82611584565b604082019050919050565b6000602082019050818103600083015261160f816115d3565b9050919050565b7f412063616e63656c6c6564206f666665722063616e6e6f742062652066756c6660008201527f696c6c6564000000000000000000000000000000000000000000000000000000602082015250565b60006116726025836113b5565b915061167d82611616565b604082019050919050565b600060208201905081810360008301526116a181611665565b9050919050565b7f5468652045544820616d6f756e742073686f756c64206d61746368207769746860008201527f20746865204e4654205072696365000000000000000000000000000000000000602082015250565b6000611704602e836113b5565b915061170f826116a8565b604082019050919050565b60006020820190508181036000830152611733816116f7565b9050919050565b6000611745826110bc565b9150611750836110bc565b9250827fffffffffffffffffffffffffffffffffffffffffffffffffffffffffffffffff03821115611785576117846112fc565b5b828201905092915050565b60006060820190506117a560008301866110c6565b6117b260208301856110c6565b6117bf604083018461122c565b949350505050565b60006117d2826110bc565b91506117dd836110bc565b9250817fffffffffffffffffffffffffffffffffffffffffffffffffffffffffffffffff0483118215151615611816576118156112fc565b5b828202905092915050565b7f4e487b7100000000000000000000000000000000000000000000000000000000600052601260045260246000fd5b600061185b826110bc565b9150611866836110bc565b92508261187657611875611821565b5b828204905092915050565b6000604082019050611896600083018561122c565b6118a360208301846110c6565b9392505050565b7f4275790000000000000000000000000000000000000000000000000000000000600082015250565b60006118e06003836113b5565b91506118eb826118aa565b602082019050919050565b600060e08201905061190b60008301896110c6565b611918602083018861122c565b611925604083018761122c565b8181036060830152611936816118d3565b905061194560808301866110c6565b61195260a08301856110c6565b61195f60c08301846110c6565b979650505050505050565b7f54686973207573657220686173206e6f2066756e647320746f20626520636c6160008201527f696d656400000000000000000000000000000000000000000000000000000000602082015250565b60006119c66024836113b5565b91506119d18261196a565b604082019050919050565b600060208201905081810360008301526119f5816119b9565b9050919050565b7f546865206f666665722063616e206f6e6c792062652063616e63656c6564206260008201527f7920746865206f776e6572000000000000000000000000000000000000000000602082015250565b6000611a58602b836113b5565b9150611a63826119fc565b604082019050919050565b60006020820190508181036000830152611a8781611a4b565b9050919050565b7f412066756c66696c6c6564206f666665722063616e6e6f742062652063616e6360008201527f656c6c6564000000000000000000000000000000000000000000000000000000602082015250565b6000611aea6025836113b5565b9150611af582611a8e565b604082019050919050565b60006020820190508181036000830152611b1981611add565b9050919050565b7f416e206f666665722063616e6e6f742062652063616e63656c6c65642074776960008201527f6365000000000000000000000000000000000000000000000000000000000000602082015250565b6000611b7c6022836113b5565b9150611b8782611b20565b604082019050919050565b60006020820190508181036000830152611bab81611b6f565b9050919050565b7f43616e63656c204f666665720000000000000000000000000000000000000000600082015250565b6000611be8600c836113b5565b9150611bf382611bb2565b602082019050919050565b600060e082019050611c1360008301896110c6565b611c20602083018861122c565b611c2d604083018761122c565b8181036060830152611c3e81611bdb565b9050611c4d60808301866110c6565b611c5a60a08301856110c6565b611c6760c08301846110c6565b97965050505050505056fea2646970667358221220711338b8198328ee6c04b9d344517df842a24b9bbc2d0b4df5b64fbdf64b6a8564736f6c634300080d0033",
  "immutableReferences": {},
  "source": "// SPDX-License-Identifier: MIT\npragma solidity ^0.8.0;\n\nimport \"./NFTCollection.sol\";\n\ncontract NFTMarketplace {\n    uint256 public offerCount;\n    mapping(uint256 => _Offer) public offers;\n    mapping(address => uint256) public userFunds;\n    NFTCollection nftCollection;\n    struct _Offer {\n        uint256 offerId;\n        uint256 id;\n        address user;\n        address minter;\n        uint256 price;\n        bool fulfilled;\n        bool cancelled;\n    }\n\n    event Offer(\n        uint256 offerId,\n        uint256 id,\n        address user,\n        address minter,\n        uint256 price,\n        bool fulfilled,\n        bool cancelled\n    );\n    event EventListener(\n        uint256 id,\n        address from,\n        address to,\n        string eventName,\n        uint256 ethPrice,\n        uint256 tokenId,\n        uint256 created_at\n    );\n    event OfferFilled(uint256 offerId, uint256 id, address newOwner);\n    event OfferCancelled(uint256 offerId, uint256 id, address owner);\n    event ClaimFunds(address user, uint256 amount);\n    event updateNFTOwner(address owner, uint256 tokenId);\n\n    constructor(address _nftCollection) {\n        nftCollection = NFTCollection(_nftCollection);\n    }\n\n    function makeOffer(uint256 _id, uint256 _price , address _minter) public {\n        nftCollection.transferFrom(msg.sender, address(this), _id);\n        offerCount++;\n        offers[offerCount] = _Offer(\n            offerCount,\n            _id,\n            msg.sender,\n            _minter,\n            _price,\n            false,\n            false\n        );\n        emit Offer(offerCount, _id, msg.sender, _minter , _price, false, false);\n        nftCollection.setTransactionCount();\n        emit EventListener(\n            nftCollection.getTransactionCount(),\n            msg.sender,\n            address(this),\n            \"Make Offer\",\n            _price,\n            _id,\n            block.timestamp\n        );\n    }\n\n    function fillOffer(uint256 _offerId) public payable {\n        _Offer storage _offer = offers[_offerId];\n        require(_offer.offerId == _offerId, \"The offer must exist\");\n        require(\n            _offer.user != msg.sender,\n            \"The owner of the offer cannot fill it\"\n        );\n        require(!_offer.fulfilled, \"An offer cannot be fulfilled twice\");\n        require(!_offer.cancelled, \"A cancelled offer cannot be fulfilled\");\n        require(\n            msg.value == _offer.price,\n            \"The ETH amount should match with the NFT Price\"\n        );\n        nftCollection.transferFrom(address(this), msg.sender, _offer.id);\n        _offer.fulfilled = true;\n        userFunds[_offer.user] += msg.value;\n        emit OfferFilled(_offerId, _offer.id, msg.sender);\n        //tranfer eth to minter\n        payable(_offer.minter).transfer((5 * _offer.price)/100);\n        //listen event from graph\n        nftCollection.setTransactionCount();\n        emit updateNFTOwner(msg.sender, _offer.id);\n        emit EventListener(\n            nftCollection.getTransactionCount(),\n            address(this),\n            msg.sender,\n            \"Buy\",\n            _offer.price,\n            _offer.id,\n            block.timestamp\n        );\n    }\n\n    function cancelOffer(uint256 _offerId) public {\n        _Offer storage _offer = offers[_offerId];\n        require(_offer.offerId == _offerId, \"The offer must exist\");\n        require(\n            _offer.user == msg.sender,\n            \"The offer can only be canceled by the owner\"\n        );\n        require(\n            _offer.fulfilled == false,\n            \"A fulfilled offer cannot be cancelled\"\n        );\n        require(\n            _offer.cancelled == false,\n            \"An offer cannot be cancelled twice\"\n        );\n        nftCollection.transferFrom(address(this), msg.sender, _offer.id);\n        _offer.cancelled = true;\n        emit EventListener(\n            nftCollection.getTransactionCount(),\n            address(this),\n            msg.sender,\n            \"Cancel Offer\",\n            _offer.price,\n            _offer.id,\n            block.timestamp\n        );\n        emit OfferCancelled(_offerId, _offer.id, msg.sender);\n    }\n\n    function claimFunds() public {\n        require(\n            userFunds[msg.sender] > 0,\n            \"This user has no funds to be claimed\"\n        );\n        payable(msg.sender).transfer(userFunds[msg.sender]);\n        emit ClaimFunds(msg.sender, userFunds[msg.sender]);\n        userFunds[msg.sender] = 0;\n    }\n\n    // Fallback: reverts if Ether is sent to this smart-contract by mistake\n    fallback() external {\n        revert();\n    }\n}\n",
  "sourcePath": "/Users/giangtran/Desktop/workspace/nft-marketplace/src/contracts/NFTMarketplace.sol",
  "compiler": {
    "name": "solc",
    "version": "0.8.13+commit.abaa5c0e.Emscripten.clang"
  },
  "schemaVersion": "3.4.1",
  "updatedAt": "2022-05-12T15:37:37.450Z",
  "devdoc": {
    "kind": "dev",
    "methods": {},
    "version": 1
  },
  "userdoc": {
    "kind": "user",
    "methods": {},
    "version": 1
  }
}