{
  "contractName": "NFTMarketplace",
  "abi": [
    {
      "inputs": [
        {
          "internalType": "address",
          "name": "_nftCollection",
          "type": "address"
        }
      ],
      "stateMutability": "nonpayable",
      "type": "constructor"
    },
    {
      "anonymous": false,
      "inputs": [
        {
          "indexed": false,
          "internalType": "address",
          "name": "user",
          "type": "address"
        },
        {
          "indexed": false,
          "internalType": "uint256",
          "name": "amount",
          "type": "uint256"
        }
      ],
      "name": "ClaimFunds",
      "type": "event"
    },
    {
      "anonymous": false,
      "inputs": [
        {
          "indexed": false,
          "internalType": "uint256",
          "name": "id",
          "type": "uint256"
        },
        {
          "indexed": false,
          "internalType": "address",
          "name": "from",
          "type": "address"
        },
        {
          "indexed": false,
          "internalType": "address",
          "name": "to",
          "type": "address"
        },
        {
          "indexed": false,
          "internalType": "string",
          "name": "eventName",
          "type": "string"
        },
        {
          "indexed": false,
          "internalType": "uint256",
          "name": "ethPrice",
          "type": "uint256"
        },
        {
          "indexed": false,
          "internalType": "uint256",
          "name": "tokenId",
          "type": "uint256"
        }
      ],
      "name": "EventListener",
      "type": "event"
    },
    {
      "anonymous": false,
      "inputs": [
        {
          "indexed": false,
          "internalType": "uint256",
          "name": "offerId",
          "type": "uint256"
        },
        {
          "indexed": false,
          "internalType": "uint256",
          "name": "id",
          "type": "uint256"
        },
        {
          "indexed": false,
          "internalType": "address",
          "name": "user",
          "type": "address"
        },
        {
          "indexed": false,
          "internalType": "uint256",
          "name": "price",
          "type": "uint256"
        },
        {
          "indexed": false,
          "internalType": "bool",
          "name": "fulfilled",
          "type": "bool"
        },
        {
          "indexed": false,
          "internalType": "bool",
          "name": "cancelled",
          "type": "bool"
        }
      ],
      "name": "Offer",
      "type": "event"
    },
    {
      "anonymous": false,
      "inputs": [
        {
          "indexed": false,
          "internalType": "uint256",
          "name": "offerId",
          "type": "uint256"
        },
        {
          "indexed": false,
          "internalType": "uint256",
          "name": "id",
          "type": "uint256"
        },
        {
          "indexed": false,
          "internalType": "address",
          "name": "owner",
          "type": "address"
        }
      ],
      "name": "OfferCancelled",
      "type": "event"
    },
    {
      "anonymous": false,
      "inputs": [
        {
          "indexed": false,
          "internalType": "uint256",
          "name": "offerId",
          "type": "uint256"
        },
        {
          "indexed": false,
          "internalType": "uint256",
          "name": "id",
          "type": "uint256"
        },
        {
          "indexed": false,
          "internalType": "address",
          "name": "newOwner",
          "type": "address"
        }
      ],
      "name": "OfferFilled",
      "type": "event"
    },
    {
      "anonymous": false,
      "inputs": [
        {
          "indexed": false,
          "internalType": "address",
          "name": "owner",
          "type": "address"
        },
        {
          "indexed": false,
          "internalType": "uint256",
          "name": "tokenId",
          "type": "uint256"
        }
      ],
      "name": "updateNFTOwner",
      "type": "event"
    },
    {
      "stateMutability": "nonpayable",
      "type": "fallback"
    },
    {
      "inputs": [],
      "name": "offerCount",
      "outputs": [
        {
          "internalType": "uint256",
          "name": "",
          "type": "uint256"
        }
      ],
      "stateMutability": "view",
      "type": "function",
      "constant": true
    },
    {
      "inputs": [
        {
          "internalType": "uint256",
          "name": "",
          "type": "uint256"
        }
      ],
      "name": "offers",
      "outputs": [
        {
          "internalType": "uint256",
          "name": "offerId",
          "type": "uint256"
        },
        {
          "internalType": "uint256",
          "name": "id",
          "type": "uint256"
        },
        {
          "internalType": "address",
          "name": "user",
          "type": "address"
        },
        {
          "internalType": "uint256",
          "name": "price",
          "type": "uint256"
        },
        {
          "internalType": "bool",
          "name": "fulfilled",
          "type": "bool"
        },
        {
          "internalType": "bool",
          "name": "cancelled",
          "type": "bool"
        }
      ],
      "stateMutability": "view",
      "type": "function",
      "constant": true
    },
    {
      "inputs": [
        {
          "internalType": "address",
          "name": "",
          "type": "address"
        }
      ],
      "name": "userFunds",
      "outputs": [
        {
          "internalType": "uint256",
          "name": "",
          "type": "uint256"
        }
      ],
      "stateMutability": "view",
      "type": "function",
      "constant": true
    },
    {
      "inputs": [
        {
          "internalType": "uint256",
          "name": "_id",
          "type": "uint256"
        },
        {
          "internalType": "uint256",
          "name": "_price",
          "type": "uint256"
        }
      ],
      "name": "makeOffer",
      "outputs": [],
      "stateMutability": "nonpayable",
      "type": "function"
    },
    {
      "inputs": [
        {
          "internalType": "uint256",
          "name": "_offerId",
          "type": "uint256"
        }
      ],
      "name": "fillOffer",
      "outputs": [],
      "stateMutability": "payable",
      "type": "function",
      "payable": true
    },
    {
      "inputs": [
        {
          "internalType": "uint256",
          "name": "_offerId",
          "type": "uint256"
        }
      ],
      "name": "cancelOffer",
      "outputs": [],
      "stateMutability": "nonpayable",
      "type": "function"
    },
    {
      "inputs": [],
      "name": "claimFunds",
      "outputs": [],
      "stateMutability": "nonpayable",
      "type": "function"
    }
  ],
  "bytecode": "0x60806040523480156200001157600080fd5b5060405162001a2938038062001a298339818101604052810190620000379190620000e9565b80600360006101000a81548173ffffffffffffffffffffffffffffffffffffffff021916908373ffffffffffffffffffffffffffffffffffffffff160217905550506200011b565b600080fd5b600073ffffffffffffffffffffffffffffffffffffffff82169050919050565b6000620000b18262000084565b9050919050565b620000c381620000a4565b8114620000cf57600080fd5b50565b600081519050620000e381620000b8565b92915050565b6000602082840312156200010257620001016200007f565b5b60006200011284828501620000d2565b91505092915050565b6118fe806200012b6000396000f3fe6080604052600436106100745760003560e01c806385dba8611161004e57806385dba861146101185780638a72ea6a14610134578063ac30777314610176578063ef706adf1461018d57610075565b806305b7cdd3146100875780631115c24d146100b05780638387c6e1146100db57610075565b5b34801561008157600080fd5b50600080fd5b34801561009357600080fd5b506100ae60048036038101906100a99190610f04565b6101b6565b005b3480156100bc57600080fd5b506100c56104fd565b6040516100d29190610f53565b60405180910390f35b3480156100e757600080fd5b5061010260048036038101906100fd9190610fcc565b610503565b60405161010f9190610f53565b60405180910390f35b610132600480360381019061012d9190610ff9565b61051b565b005b34801561014057600080fd5b5061015b60048036038101906101569190610ff9565b6109f8565b60405161016d96959493929190611050565b60405180910390f35b34801561018257600080fd5b5061018b610a6e565b005b34801561019957600080fd5b506101b460048036038101906101af9190610ff9565b610c35565b005b600360009054906101000a900473ffffffffffffffffffffffffffffffffffffffff1673ffffffffffffffffffffffffffffffffffffffff166323b872dd3330856040518463ffffffff1660e01b8152600401610215939291906110b1565b600060405180830381600087803b15801561022f57600080fd5b505af1158015610243573d6000803e3d6000fd5b5050505060008081548092919061025990611117565b91905055506040518060c0016040528060005481526020018381526020013373ffffffffffffffffffffffffffffffffffffffff168152602001828152602001600015158152602001600015158152506001600080548152602001908152602001600020600082015181600001556020820151816001015560408201518160020160006101000a81548173ffffffffffffffffffffffffffffffffffffffff021916908373ffffffffffffffffffffffffffffffffffffffff1602179055506060820151816003015560808201518160040160006101000a81548160ff02191690831515021790555060a08201518160040160016101000a81548160ff0219169083151502179055509050507f93e711896d4ef527d199d7e101922e20f918cbb248a0fb0977c52fda24aa1f1d6000548333846000806040516103a196959493929190611050565b60405180910390a1600360009054906101000a900473ffffffffffffffffffffffffffffffffffffffff1673ffffffffffffffffffffffffffffffffffffffff16639fd068696040518163ffffffff1660e01b8152600401600060405180830381600087803b15801561041357600080fd5b505af1158015610427573d6000803e3d6000fd5b505050507eae2ec57b87b90ac825d6b99ed1d4733c99b27e793a152dafe0957a4d84d104600360009054906101000a900473ffffffffffffffffffffffffffffffffffffffff1673ffffffffffffffffffffffffffffffffffffffff16632e7700f06040518163ffffffff1660e01b8152600401602060405180830381865afa1580156104b8573d6000803e3d6000fd5b505050506040513d601f19601f820116820180604052508101906104dc9190611174565b333084866040516104f19594939291906111fe565b60405180910390a15050565b60005481565b60026020528060005260406000206000915090505481565b600060016000838152602001908152602001600020905081816000015414610578576040517f08c379a000000000000000000000000000000000000000000000000000000000815260040161056f906112b0565b60405180910390fd5b3373ffffffffffffffffffffffffffffffffffffffff168160020160009054906101000a900473ffffffffffffffffffffffffffffffffffffffff1673ffffffffffffffffffffffffffffffffffffffff160361060a576040517f08c379a000000000000000000000000000000000000000000000000000000000815260040161060190611342565b60405180910390fd5b8060040160009054906101000a900460ff161561065c576040517f08c379a0000000000000000000000000000000000000000000000000000000008152600401610653906113d4565b60405180910390fd5b8060040160019054906101000a900460ff16156106ae576040517f08c379a00000000000000000000000000000000000000000000000000000000081526004016106a590611466565b60405180910390fd5b806003015434146106f4576040517f08c379a00000000000000000000000000000000000000000000000000000000081526004016106eb906114f8565b60405180910390fd5b600360009054906101000a900473ffffffffffffffffffffffffffffffffffffffff1673ffffffffffffffffffffffffffffffffffffffff166323b872dd303384600101546040518463ffffffff1660e01b8152600401610757939291906110b1565b600060405180830381600087803b15801561077157600080fd5b505af1158015610785573d6000803e3d6000fd5b5050505060018160040160006101000a81548160ff02191690831515021790555034600260008360020160009054906101000a900473ffffffffffffffffffffffffffffffffffffffff1673ffffffffffffffffffffffffffffffffffffffff1673ffffffffffffffffffffffffffffffffffffffff16815260200190815260200160002060008282546108199190611518565b925050819055507fd9157c065213ada613694e84b1e27fe2efd62d85c6b82bd6c842a4999491e72a828260010154336040516108579392919061156e565b60405180910390a1600360009054906101000a900473ffffffffffffffffffffffffffffffffffffffff1673ffffffffffffffffffffffffffffffffffffffff16639fd068696040518163ffffffff1660e01b8152600401600060405180830381600087803b1580156108c957600080fd5b505af11580156108dd573d6000803e3d6000fd5b505050507fae41bd7e22d87753d139259f1de18b0c5a27754970ef7c591d74b9ef0c8a47cd3382600101546040516109169291906115a5565b60405180910390a17eae2ec57b87b90ac825d6b99ed1d4733c99b27e793a152dafe0957a4d84d104600360009054906101000a900473ffffffffffffffffffffffffffffffffffffffff1673ffffffffffffffffffffffffffffffffffffffff16632e7700f06040518163ffffffff1660e01b8152600401602060405180830381865afa1580156109ab573d6000803e3d6000fd5b505050506040513d601f19601f820116820180604052508101906109cf9190611174565b3033846003015485600101546040516109ec95949392919061161a565b60405180910390a15050565b60016020528060005260406000206000915090508060000154908060010154908060020160009054906101000a900473ffffffffffffffffffffffffffffffffffffffff16908060030154908060040160009054906101000a900460ff16908060040160019054906101000a900460ff16905086565b6000600260003373ffffffffffffffffffffffffffffffffffffffff1673ffffffffffffffffffffffffffffffffffffffff1681526020019081526020016000205411610af0576040517f08c379a0000000000000000000000000000000000000000000000000000000008152600401610ae7906116f2565b60405180910390fd5b3373ffffffffffffffffffffffffffffffffffffffff166108fc600260003373ffffffffffffffffffffffffffffffffffffffff1673ffffffffffffffffffffffffffffffffffffffff168152602001908152602001600020549081150290604051600060405180830381858888f19350505050158015610b75573d6000803e3d6000fd5b507f4f0554190111f93f8c2ccef2cc41473f187d7f29ff5a5c308ca41f9dfe4e989a33600260003373ffffffffffffffffffffffffffffffffffffffff1673ffffffffffffffffffffffffffffffffffffffff16815260200190815260200160002054604051610be69291906115a5565b60405180910390a16000600260003373ffffffffffffffffffffffffffffffffffffffff1673ffffffffffffffffffffffffffffffffffffffff16815260200190815260200160002081905550565b600060016000838152602001908152602001600020905081816000015414610c92576040517f08c379a0000000000000000000000000000000000000000000000000000000008152600401610c89906112b0565b60405180910390fd5b3373ffffffffffffffffffffffffffffffffffffffff168160020160009054906101000a900473ffffffffffffffffffffffffffffffffffffffff1673ffffffffffffffffffffffffffffffffffffffff1614610d24576040517f08c379a0000000000000000000000000000000000000000000000000000000008152600401610d1b90611784565b60405180910390fd5b600015158160040160009054906101000a900460ff16151514610d7c576040517f08c379a0000000000000000000000000000000000000000000000000000000008152600401610d7390611816565b60405180910390fd5b600015158160040160019054906101000a900460ff16151514610dd4576040517f08c379a0000000000000000000000000000000000000000000000000000000008152600401610dcb906118a8565b60405180910390fd5b600360009054906101000a900473ffffffffffffffffffffffffffffffffffffffff1673ffffffffffffffffffffffffffffffffffffffff166323b872dd303384600101546040518463ffffffff1660e01b8152600401610e37939291906110b1565b600060405180830381600087803b158015610e5157600080fd5b505af1158015610e65573d6000803e3d6000fd5b5050505060018160040160016101000a81548160ff0219169083151502179055507f5b166b4d0498ff8c4719999cb6154c5d197e6f020f9fbfcf9d347f84576cfab782826001015433604051610ebd9392919061156e565b60405180910390a15050565b600080fd5b6000819050919050565b610ee181610ece565b8114610eec57600080fd5b50565b600081359050610efe81610ed8565b92915050565b60008060408385031215610f1b57610f1a610ec9565b5b6000610f2985828601610eef565b9250506020610f3a85828601610eef565b9150509250929050565b610f4d81610ece565b82525050565b6000602082019050610f686000830184610f44565b92915050565b600073ffffffffffffffffffffffffffffffffffffffff82169050919050565b6000610f9982610f6e565b9050919050565b610fa981610f8e565b8114610fb457600080fd5b50565b600081359050610fc681610fa0565b92915050565b600060208284031215610fe257610fe1610ec9565b5b6000610ff084828501610fb7565b91505092915050565b60006020828403121561100f5761100e610ec9565b5b600061101d84828501610eef565b91505092915050565b61102f81610f8e565b82525050565b60008115159050919050565b61104a81611035565b82525050565b600060c0820190506110656000830189610f44565b6110726020830188610f44565b61107f6040830187611026565b61108c6060830186610f44565b6110996080830185611041565b6110a660a0830184611041565b979650505050505050565b60006060820190506110c66000830186611026565b6110d36020830185611026565b6110e06040830184610f44565b949350505050565b7f4e487b7100000000000000000000000000000000000000000000000000000000600052601160045260246000fd5b600061112282610ece565b91507fffffffffffffffffffffffffffffffffffffffffffffffffffffffffffffffff8203611154576111536110e8565b5b600182019050919050565b60008151905061116e81610ed8565b92915050565b60006020828403121561118a57611189610ec9565b5b60006111988482850161115f565b91505092915050565b600082825260208201905092915050565b7f6d616b654f666665720000000000000000000000000000000000000000000000600082015250565b60006111e86009836111a1565b91506111f3826111b2565b602082019050919050565b600060c0820190506112136000830188610f44565b6112206020830187611026565b61122d6040830186611026565b818103606083015261123e816111db565b905061124d6080830185610f44565b61125a60a0830184610f44565b9695505050505050565b7f546865206f66666572206d757374206578697374000000000000000000000000600082015250565b600061129a6014836111a1565b91506112a582611264565b602082019050919050565b600060208201905081810360008301526112c98161128d565b9050919050565b7f546865206f776e6572206f6620746865206f666665722063616e6e6f7420666960008201527f6c6c206974000000000000000000000000000000000000000000000000000000602082015250565b600061132c6025836111a1565b9150611337826112d0565b604082019050919050565b6000602082019050818103600083015261135b8161131f565b9050919050565b7f416e206f666665722063616e6e6f742062652066756c66696c6c65642074776960008201527f6365000000000000000000000000000000000000000000000000000000000000602082015250565b60006113be6022836111a1565b91506113c982611362565b604082019050919050565b600060208201905081810360008301526113ed816113b1565b9050919050565b7f412063616e63656c6c6564206f666665722063616e6e6f742062652066756c6660008201527f696c6c6564000000000000000000000000000000000000000000000000000000602082015250565b60006114506025836111a1565b915061145b826113f4565b604082019050919050565b6000602082019050818103600083015261147f81611443565b9050919050565b7f5468652045544820616d6f756e742073686f756c64206d61746368207769746860008201527f20746865204e4654205072696365000000000000000000000000000000000000602082015250565b60006114e2602e836111a1565b91506114ed82611486565b604082019050919050565b60006020820190508181036000830152611511816114d5565b9050919050565b600061152382610ece565b915061152e83610ece565b9250827fffffffffffffffffffffffffffffffffffffffffffffffffffffffffffffffff03821115611563576115626110e8565b5b828201905092915050565b60006060820190506115836000830186610f44565b6115906020830185610f44565b61159d6040830184611026565b949350505050565b60006040820190506115ba6000830185611026565b6115c76020830184610f44565b9392505050565b7f66696c6c4f666665720000000000000000000000000000000000000000000000600082015250565b60006116046009836111a1565b915061160f826115ce565b602082019050919050565b600060c08201905061162f6000830188610f44565b61163c6020830187611026565b6116496040830186611026565b818103606083015261165a816115f7565b90506116696080830185610f44565b61167660a0830184610f44565b9695505050505050565b7f54686973207573657220686173206e6f2066756e647320746f20626520636c6160008201527f696d656400000000000000000000000000000000000000000000000000000000602082015250565b60006116dc6024836111a1565b91506116e782611680565b604082019050919050565b6000602082019050818103600083015261170b816116cf565b9050919050565b7f546865206f666665722063616e206f6e6c792062652063616e63656c6564206260008201527f7920746865206f776e6572000000000000000000000000000000000000000000602082015250565b600061176e602b836111a1565b915061177982611712565b604082019050919050565b6000602082019050818103600083015261179d81611761565b9050919050565b7f412066756c66696c6c6564206f666665722063616e6e6f742062652063616e6360008201527f656c6c6564000000000000000000000000000000000000000000000000000000602082015250565b60006118006025836111a1565b915061180b826117a4565b604082019050919050565b6000602082019050818103600083015261182f816117f3565b9050919050565b7f416e206f666665722063616e6e6f742062652063616e63656c6c65642074776960008201527f6365000000000000000000000000000000000000000000000000000000000000602082015250565b60006118926022836111a1565b915061189d82611836565b604082019050919050565b600060208201905081810360008301526118c181611885565b905091905056fea26469706673582212209eaef756c1fe2839d44581c520dfb4b236dffa73cf77a98f79db4a1e0434331564736f6c634300080d0033",
  "immutableReferences": {},
  "source": "// SPDX-License-Identifier: MIT\r\npragma solidity ^0.8.0;\r\n\r\nimport \"./NFTCollection.sol\";\r\n\r\ncontract NFTMarketplace {\r\n    uint256 public offerCount;\r\n    mapping(uint256 => _Offer) public offers;\r\n    mapping(address => uint256) public userFunds;\r\n    NFTCollection nftCollection;\r\n    struct _Offer {\r\n        uint256 offerId;\r\n        uint256 id;\r\n        address user;\r\n        uint256 price;\r\n        bool fulfilled;\r\n        bool cancelled;\r\n    }\r\n\r\n    event Offer(\r\n        uint256 offerId,\r\n        uint256 id,\r\n        address user,\r\n        uint256 price,\r\n        bool fulfilled,\r\n        bool cancelled\r\n    );\r\n    event EventListener(uint id,address from, address to, string eventName,uint256 ethPrice,uint tokenId);\r\n    event OfferFilled(uint256 offerId, uint256 id, address newOwner);\r\n    event OfferCancelled(uint256 offerId, uint256 id, address owner);\r\n    event ClaimFunds(address user, uint256 amount);\r\n    event updateNFTOwner(address owner,uint tokenId);\r\n\r\n    constructor(address _nftCollection) {\r\n        nftCollection = NFTCollection(_nftCollection);\r\n    }\r\n\r\n    function makeOffer(uint256 _id, uint256 _price) public {\r\n        nftCollection.transferFrom(msg.sender, address(this), _id);\r\n        offerCount++;\r\n        offers[offerCount] = _Offer(\r\n            offerCount,\r\n            _id,\r\n            msg.sender,\r\n            _price,\r\n            false,\r\n            false\r\n        );\r\n        emit Offer(offerCount, _id, msg.sender, _price, false, false);\r\n        nftCollection.setTransactionCount();\r\n        emit EventListener(nftCollection.getTransactionCount(),msg.sender,address(this),\"makeOffer\",_price,_id);\r\n    }\r\n\r\n    function fillOffer(uint256 _offerId) public payable {\r\n        _Offer storage _offer = offers[_offerId];\r\n        require(_offer.offerId == _offerId, \"The offer must exist\");\r\n        require(\r\n            _offer.user != msg.sender,\r\n            \"The owner of the offer cannot fill it\"\r\n        );\r\n        require(!_offer.fulfilled, \"An offer cannot be fulfilled twice\");\r\n        require(!_offer.cancelled, \"A cancelled offer cannot be fulfilled\");\r\n        require(\r\n            msg.value == _offer.price,\r\n            \"The ETH amount should match with the NFT Price\"\r\n        );\r\n        nftCollection.transferFrom(address(this), msg.sender, _offer.id);\r\n        _offer.fulfilled = true;\r\n        userFunds[_offer.user] += msg.value;\r\n        emit OfferFilled(_offerId, _offer.id, msg.sender);\r\n        \r\n        nftCollection.setTransactionCount();\r\n        emit updateNFTOwner(msg.sender,_offer.id);\r\n        emit EventListener(nftCollection.getTransactionCount(),address(this), msg.sender,\"fillOffer\", _offer.price,_offer.id);\r\n    }\r\n\r\n    function cancelOffer(uint256 _offerId) public {\r\n        _Offer storage _offer = offers[_offerId];\r\n        require(_offer.offerId == _offerId, \"The offer must exist\");\r\n        require(\r\n            _offer.user == msg.sender,\r\n            \"The offer can only be canceled by the owner\"\r\n        );\r\n        require(\r\n            _offer.fulfilled == false,\r\n            \"A fulfilled offer cannot be cancelled\"\r\n        );\r\n        require(\r\n            _offer.cancelled == false,\r\n            \"An offer cannot be cancelled twice\"\r\n        );\r\n        nftCollection.transferFrom(address(this), msg.sender, _offer.id);\r\n        _offer.cancelled = true;\r\n        emit OfferCancelled(_offerId, _offer.id, msg.sender);\r\n    }\r\n\r\n    function claimFunds() public {\r\n        require(\r\n            userFunds[msg.sender] > 0,\r\n            \"This user has no funds to be claimed\"\r\n        );\r\n        payable(msg.sender).transfer(userFunds[msg.sender]);\r\n        emit ClaimFunds(msg.sender, userFunds[msg.sender]);\r\n        userFunds[msg.sender] = 0;\r\n    }\r\n\r\n    // function tokensByOwner(address myAddress)\r\n    //     public\r\n    //     view\r\n    //     returns (uint256[] memory)\r\n    // {\r\n    //     uint256 totalSupply = nftCollection.totalSupply();\r\n    //     uint256[] memory result = new uint256[](totalSupply);\r\n    //     uint256 resultIndex = 0;\r\n    //     uint256 tokenId;\r\n    //     uint256 offerId;\r\n    //     address owner;\r\n    //     require(totalSupply > 0, \"total supply greater than 0\");\r\n    //     require(offerCount > 0, \"offer count greater than 0\");\r\n    //     for (tokenId = 1; tokenId <= totalSupply; tokenId++) {\r\n    //         owner = nftCollection.ownerOf(tokenId);\r\n    //         if (owner == myAddress) {\r\n    //             result[resultIndex] = tokenId;\r\n    //             resultIndex++;\r\n    //         }\r\n    //     }\r\n\r\n    //     for (offerId = 1; offerId <= offerCount; offerId++) {\r\n    //         _Offer storage _offer = offers[offerId];\r\n    //         if (_offer.user == myAddress) {\r\n    //             result[resultIndex] = _offer.id;\r\n    //             resultIndex++;\r\n    //         }\r\n    //     }\r\n    //     return result;\r\n    // }\r\n\r\n    // Fallback: reverts if Ether is sent to this smart-contract by mistake\r\n    fallback() external {\r\n        revert();\r\n    }\r\n}\r\n",
  "sourcePath": "D:\\workspace\\nft-marketplace\\src\\contracts\\NFTMarketplace.sol",
  "compiler": {
    "name": "solc",
    "version": "0.8.13+commit.abaa5c0e.Emscripten.clang"
  },
  "schemaVersion": "3.4.6",
  "updatedAt": "2022-05-01T18:23:52.786Z",
  "networkType": "ethereum",
  "devdoc": {
    "kind": "dev",
    "methods": {},
    "version": 1
  },
  "userdoc": {
    "kind": "user",
    "methods": {},
    "version": 1
  }
}